{
	"contracts/众筹合约.sol": {
		"CrowdFund": {
			"abi": [
				{
					"inputs": [
						{
							"internalType": "address",
							"name": "_beneficiary",
							"type": "address"
						},
						{
							"internalType": "uint256",
							"name": "_goal",
							"type": "uint256"
						}
					],
					"stateMutability": "nonpayable",
					"type": "constructor"
				},
				{
					"inputs": [],
					"name": "available",
					"outputs": [
						{
							"internalType": "bool",
							"name": "",
							"type": "bool"
						}
					],
					"stateMutability": "view",
					"type": "function"
				},
				{
					"inputs": [],
					"name": "beneficiary",
					"outputs": [
						{
							"internalType": "address",
							"name": "",
							"type": "address"
						}
					],
					"stateMutability": "view",
					"type": "function"
				},
				{
					"inputs": [],
					"name": "close",
					"outputs": [
						{
							"internalType": "bool",
							"name": "",
							"type": "bool"
						}
					],
					"stateMutability": "nonpayable",
					"type": "function"
				},
				{
					"inputs": [],
					"name": "contrubute",
					"outputs": [],
					"stateMutability": "payable",
					"type": "function"
				},
				{
					"inputs": [
						{
							"internalType": "address",
							"name": "",
							"type": "address"
						}
					],
					"name": "funders",
					"outputs": [
						{
							"internalType": "uint256",
							"name": "",
							"type": "uint256"
						}
					],
					"stateMutability": "view",
					"type": "function"
				},
				{
					"inputs": [
						{
							"internalType": "uint256",
							"name": "",
							"type": "uint256"
						}
					],
					"name": "fundersKey",
					"outputs": [
						{
							"internalType": "address",
							"name": "",
							"type": "address"
						}
					],
					"stateMutability": "view",
					"type": "function"
				},
				{
					"inputs": [],
					"name": "fundersLength",
					"outputs": [
						{
							"internalType": "uint256",
							"name": "",
							"type": "uint256"
						}
					],
					"stateMutability": "view",
					"type": "function"
				},
				{
					"inputs": [],
					"name": "fundingAmount",
					"outputs": [
						{
							"internalType": "uint256",
							"name": "",
							"type": "uint256"
						}
					],
					"stateMutability": "view",
					"type": "function"
				},
				{
					"inputs": [],
					"name": "fundingGoal",
					"outputs": [
						{
							"internalType": "uint256",
							"name": "",
							"type": "uint256"
						}
					],
					"stateMutability": "view",
					"type": "function"
				}
			],
			"devdoc": {
				"kind": "dev",
				"methods": {},
				"version": 1
			},
			"evm": {
				"assembly": "    /* \"contracts/\\xe4\\xbc\\x97\\xe7\\xad\\xb9\\xe5\\x90\\x88\\xe7\\xba\\xa6.sol\":631:2311  contract CrowdFund {... */\n  mstore(0x40, 0xc0)\n    /* \"contracts/\\xe4\\xbc\\x97\\xe7\\xad\\xb9\\xe5\\x90\\x88\\xe7\\xba\\xa6.sol\":934:938  true */\n  0x01\n    /* \"contracts/\\xe4\\xbc\\x97\\xe7\\xad\\xb9\\xe5\\x90\\x88\\xe7\\xba\\xa6.sol\":910:938  bool public available = true */\n  0x04\n  exp(0x0100, 0x00)\n  dup2\n  sload\n  dup2\n  0xff\n  mul\n  not\n  and\n  swap1\n  dup4\n  iszero\n  iszero\n  mul\n  or\n  swap1\n  sstore\n  pop\n    /* \"contracts/\\xe4\\xbc\\x97\\xe7\\xad\\xb9\\xe5\\x90\\x88\\xe7\\xba\\xa6.sol\":992:1112  constructor(address _beneficiary, uint256 _goal){... */\n  callvalue\n  dup1\n  iszero\n  tag_1\n  jumpi\n  0x00\n  dup1\n  revert\ntag_1:\n  pop\n  mload(0x40)\n  sub(codesize, bytecodeSize)\n  dup1\n  bytecodeSize\n  dup4\n  codecopy\n  dup2\n  dup2\n  add\n  0x40\n  mstore\n  dup2\n  add\n  swap1\n  tag_2\n  swap2\n  swap1\n  tag_3\n  jump\t// in\ntag_2:\n    /* \"contracts/\\xe4\\xbc\\x97\\xe7\\xad\\xb9\\xe5\\x90\\x88\\xe7\\xba\\xa6.sol\":1064:1076  _beneficiary */\n  dup2\n    /* \"contracts/\\xe4\\xbc\\x97\\xe7\\xad\\xb9\\xe5\\x90\\x88\\xe7\\xba\\xa6.sol\":1050:1076  beneficiary = _beneficiary */\n  0xffffffffffffffffffffffffffffffffffffffff\n  and\n  0x80\n  dup2\n  0xffffffffffffffffffffffffffffffffffffffff\n  and\n  dup2\n  mstore\n  pop\n  pop\n    /* \"contracts/\\xe4\\xbc\\x97\\xe7\\xad\\xb9\\xe5\\x90\\x88\\xe7\\xba\\xa6.sol\":1100:1105  _goal */\n  dup1\n    /* \"contracts/\\xe4\\xbc\\x97\\xe7\\xad\\xb9\\xe5\\x90\\x88\\xe7\\xba\\xa6.sol\":1086:1105  fundingGoal = _goal */\n  0xa0\n  dup2\n  dup2\n  mstore\n  pop\n  pop\n    /* \"contracts/\\xe4\\xbc\\x97\\xe7\\xad\\xb9\\xe5\\x90\\x88\\xe7\\xba\\xa6.sol\":992:1112  constructor(address _beneficiary, uint256 _goal){... */\n  pop\n  pop\n    /* \"contracts/\\xe4\\xbc\\x97\\xe7\\xad\\xb9\\xe5\\x90\\x88\\xe7\\xba\\xa6.sol\":631:2311  contract CrowdFund {... */\n  jump(tag_6)\n    /* \"#utility.yul\":88:205   */\ntag_8:\n    /* \"#utility.yul\":197:198   */\n  0x00\n    /* \"#utility.yul\":194:195   */\n  dup1\n    /* \"#utility.yul\":187:199   */\n  revert\n    /* \"#utility.yul\":334:460   */\ntag_10:\n    /* \"#utility.yul\":371:378   */\n  0x00\n    /* \"#utility.yul\":411:453   */\n  0xffffffffffffffffffffffffffffffffffffffff\n    /* \"#utility.yul\":404:409   */\n  dup3\n    /* \"#utility.yul\":400:454   */\n  and\n    /* \"#utility.yul\":389:454   */\n  swap1\n  pop\n    /* \"#utility.yul\":334:460   */\n  swap2\n  swap1\n  pop\n  jump\t// out\n    /* \"#utility.yul\":466:562   */\ntag_11:\n    /* \"#utility.yul\":503:510   */\n  0x00\n    /* \"#utility.yul\":532:556   */\n  tag_23\n    /* \"#utility.yul\":550:555   */\n  dup3\n    /* \"#utility.yul\":532:556   */\n  tag_10\n  jump\t// in\ntag_23:\n    /* \"#utility.yul\":521:556   */\n  swap1\n  pop\n    /* \"#utility.yul\":466:562   */\n  swap2\n  swap1\n  pop\n  jump\t// out\n    /* \"#utility.yul\":568:690   */\ntag_12:\n    /* \"#utility.yul\":641:665   */\n  tag_25\n    /* \"#utility.yul\":659:664   */\n  dup2\n    /* \"#utility.yul\":641:665   */\n  tag_11\n  jump\t// in\ntag_25:\n    /* \"#utility.yul\":634:639   */\n  dup2\n    /* \"#utility.yul\":631:666   */\n  eq\n    /* \"#utility.yul\":621:684   */\n  tag_26\n  jumpi\n    /* \"#utility.yul\":680:681   */\n  0x00\n    /* \"#utility.yul\":677:678   */\n  dup1\n    /* \"#utility.yul\":670:682   */\n  revert\n    /* \"#utility.yul\":621:684   */\ntag_26:\n    /* \"#utility.yul\":568:690   */\n  pop\n  jump\t// out\n    /* \"#utility.yul\":696:839   */\ntag_13:\n    /* \"#utility.yul\":753:758   */\n  0x00\n    /* \"#utility.yul\":784:790   */\n  dup2\n    /* \"#utility.yul\":778:791   */\n  mload\n    /* \"#utility.yul\":769:791   */\n  swap1\n  pop\n    /* \"#utility.yul\":800:833   */\n  tag_28\n    /* \"#utility.yul\":827:832   */\n  dup2\n    /* \"#utility.yul\":800:833   */\n  tag_12\n  jump\t// in\ntag_28:\n    /* \"#utility.yul\":696:839   */\n  swap3\n  swap2\n  pop\n  pop\n  jump\t// out\n    /* \"#utility.yul\":845:922   */\ntag_14:\n    /* \"#utility.yul\":882:889   */\n  0x00\n    /* \"#utility.yul\":911:916   */\n  dup2\n    /* \"#utility.yul\":900:916   */\n  swap1\n  pop\n    /* \"#utility.yul\":845:922   */\n  swap2\n  swap1\n  pop\n  jump\t// out\n    /* \"#utility.yul\":928:1050   */\ntag_15:\n    /* \"#utility.yul\":1001:1025   */\n  tag_31\n    /* \"#utility.yul\":1019:1024   */\n  dup2\n    /* \"#utility.yul\":1001:1025   */\n  tag_14\n  jump\t// in\ntag_31:\n    /* \"#utility.yul\":994:999   */\n  dup2\n    /* \"#utility.yul\":991:1026   */\n  eq\n    /* \"#utility.yul\":981:1044   */\n  tag_32\n  jumpi\n    /* \"#utility.yul\":1040:1041   */\n  0x00\n    /* \"#utility.yul\":1037:1038   */\n  dup1\n    /* \"#utility.yul\":1030:1042   */\n  revert\n    /* \"#utility.yul\":981:1044   */\ntag_32:\n    /* \"#utility.yul\":928:1050   */\n  pop\n  jump\t// out\n    /* \"#utility.yul\":1056:1199   */\ntag_16:\n    /* \"#utility.yul\":1113:1118   */\n  0x00\n    /* \"#utility.yul\":1144:1150   */\n  dup2\n    /* \"#utility.yul\":1138:1151   */\n  mload\n    /* \"#utility.yul\":1129:1151   */\n  swap1\n  pop\n    /* \"#utility.yul\":1160:1193   */\n  tag_34\n    /* \"#utility.yul\":1187:1192   */\n  dup2\n    /* \"#utility.yul\":1160:1193   */\n  tag_15\n  jump\t// in\ntag_34:\n    /* \"#utility.yul\":1056:1199   */\n  swap3\n  swap2\n  pop\n  pop\n  jump\t// out\n    /* \"#utility.yul\":1205:1712   */\ntag_3:\n    /* \"#utility.yul\":1284:1290   */\n  0x00\n    /* \"#utility.yul\":1292:1298   */\n  dup1\n    /* \"#utility.yul\":1341:1343   */\n  0x40\n    /* \"#utility.yul\":1329:1338   */\n  dup4\n    /* \"#utility.yul\":1320:1327   */\n  dup6\n    /* \"#utility.yul\":1316:1339   */\n  sub\n    /* \"#utility.yul\":1312:1344   */\n  slt\n    /* \"#utility.yul\":1309:1428   */\n  iszero\n  tag_36\n  jumpi\n    /* \"#utility.yul\":1347:1426   */\n  tag_37\n  tag_8\n  jump\t// in\ntag_37:\n    /* \"#utility.yul\":1309:1428   */\ntag_36:\n    /* \"#utility.yul\":1467:1468   */\n  0x00\n    /* \"#utility.yul\":1492:1556   */\n  tag_38\n    /* \"#utility.yul\":1548:1555   */\n  dup6\n    /* \"#utility.yul\":1539:1545   */\n  dup3\n    /* \"#utility.yul\":1528:1537   */\n  dup7\n    /* \"#utility.yul\":1524:1546   */\n  add\n    /* \"#utility.yul\":1492:1556   */\n  tag_13\n  jump\t// in\ntag_38:\n    /* \"#utility.yul\":1482:1556   */\n  swap3\n  pop\n    /* \"#utility.yul\":1438:1566   */\n  pop\n    /* \"#utility.yul\":1605:1607   */\n  0x20\n    /* \"#utility.yul\":1631:1695   */\n  tag_39\n    /* \"#utility.yul\":1687:1694   */\n  dup6\n    /* \"#utility.yul\":1678:1684   */\n  dup3\n    /* \"#utility.yul\":1667:1676   */\n  dup7\n    /* \"#utility.yul\":1663:1685   */\n  add\n    /* \"#utility.yul\":1631:1695   */\n  tag_16\n  jump\t// in\ntag_39:\n    /* \"#utility.yul\":1621:1695   */\n  swap2\n  pop\n    /* \"#utility.yul\":1576:1705   */\n  pop\n    /* \"#utility.yul\":1205:1712   */\n  swap3\n  pop\n  swap3\n  swap1\n  pop\n  jump\t// out\n    /* \"contracts/\\xe4\\xbc\\x97\\xe7\\xad\\xb9\\xe5\\x90\\x88\\xe7\\xba\\xa6.sol\":631:2311  contract CrowdFund {... */\ntag_6:\n  mload(0x80)\n  mload(0xa0)\n  codecopy(0x00, dataOffset(sub_0), dataSize(sub_0))\n  0x00\n  assignImmutable(\"0xceebf77a833b30520287ddd9478ff51abbdffa30aa90a8d655dba0e8a79ce0c1\")\n  0x00\n  assignImmutable(\"0x2a80e1ef1d7842f27f2e6be0972bb708b9a135c38860dbe73c27c3486c34f4de\")\n  return(0x00, dataSize(sub_0))\nstop\n\nsub_0: assembly {\n        /* \"contracts/\\xe4\\xbc\\x97\\xe7\\xad\\xb9\\xe5\\x90\\x88\\xe7\\xba\\xa6.sol\":631:2311  contract CrowdFund {... */\n      mstore(0x40, 0x80)\n      jumpi(tag_1, lt(calldatasize, 0x04))\n      shr(0xe0, calldataload(0x00))\n      dup1\n      0x43d726d6\n      gt\n      tag_11\n      jumpi\n      dup1\n      0x43d726d6\n      eq\n      tag_6\n      jumpi\n      dup1\n      0x48a0d754\n      eq\n      tag_7\n      jumpi\n      dup1\n      0x7a3a0e84\n      eq\n      tag_8\n      jumpi\n      dup1\n      0xd7ac1677\n      eq\n      tag_9\n      jumpi\n      dup1\n      0xe3d94735\n      eq\n      tag_10\n      jumpi\n      jump(tag_1)\n    tag_11:\n      dup1\n      0x031b3677\n      eq\n      tag_2\n      jumpi\n      dup1\n      0x04a79c97\n      eq\n      tag_3\n      jumpi\n      dup1\n      0x223a9892\n      eq\n      tag_4\n      jumpi\n      dup1\n      0x38af3eed\n      eq\n      tag_5\n      jumpi\n    tag_1:\n      0x00\n      dup1\n      revert\n        /* \"contracts/\\xe4\\xbc\\x97\\xe7\\xad\\xb9\\xe5\\x90\\x88\\xe7\\xba\\xa6.sol\":774:816  mapping(address => uint256) public funders */\n    tag_2:\n      callvalue\n      dup1\n      iszero\n      tag_12\n      jumpi\n      0x00\n      dup1\n      revert\n    tag_12:\n      pop\n      tag_13\n      0x04\n      dup1\n      calldatasize\n      sub\n      dup2\n      add\n      swap1\n      tag_14\n      swap2\n      swap1\n      tag_15\n      jump\t// in\n    tag_14:\n      tag_16\n      jump\t// in\n    tag_13:\n      mload(0x40)\n      tag_17\n      swap2\n      swap1\n      tag_18\n      jump\t// in\n    tag_17:\n      mload(0x40)\n      dup1\n      swap2\n      sub\n      swap1\n      return\n        /* \"contracts/\\xe4\\xbc\\x97\\xe7\\xad\\xb9\\xe5\\x90\\x88\\xe7\\xba\\xa6.sol\":740:768  uint256 public fundingAmount */\n    tag_3:\n      callvalue\n      dup1\n      iszero\n      tag_19\n      jumpi\n      0x00\n      dup1\n      revert\n    tag_19:\n      pop\n      tag_20\n      tag_21\n      jump\t// in\n    tag_20:\n      mload(0x40)\n      tag_22\n      swap2\n      swap1\n      tag_18\n      jump\t// in\n    tag_22:\n      mload(0x40)\n      dup1\n      swap2\n      sub\n      swap1\n      return\n        /* \"contracts/\\xe4\\xbc\\x97\\xe7\\xad\\xb9\\xe5\\x90\\x88\\xe7\\xba\\xa6.sol\":1118:1912  function contrubute() external payable {... */\n    tag_4:\n      tag_23\n      tag_24\n      jump\t// in\n    tag_23:\n      stop\n        /* \"contracts/\\xe4\\xbc\\x97\\xe7\\xad\\xb9\\xe5\\x90\\x88\\xe7\\xba\\xa6.sol\":656:692  address public immutable beneficiary */\n    tag_5:\n      callvalue\n      dup1\n      iszero\n      tag_25\n      jumpi\n      0x00\n      dup1\n      revert\n    tag_25:\n      pop\n      tag_26\n      tag_27\n      jump\t// in\n    tag_26:\n      mload(0x40)\n      tag_28\n      swap2\n      swap1\n      tag_29\n      jump\t// in\n    tag_28:\n      mload(0x40)\n      dup1\n      swap2\n      sub\n      swap1\n      return\n        /* \"contracts/\\xe4\\xbc\\x97\\xe7\\xad\\xb9\\xe5\\x90\\x88\\xe7\\xba\\xa6.sol\":1918:2208  function close() external returns(bool) {... */\n    tag_6:\n      callvalue\n      dup1\n      iszero\n      tag_30\n      jumpi\n      0x00\n      dup1\n      revert\n    tag_30:\n      pop\n      tag_31\n      tag_32\n      jump\t// in\n    tag_31:\n      mload(0x40)\n      tag_33\n      swap2\n      swap1\n      tag_34\n      jump\t// in\n    tag_33:\n      mload(0x40)\n      dup1\n      swap2\n      sub\n      swap1\n      return\n        /* \"contracts/\\xe4\\xbc\\x97\\xe7\\xad\\xb9\\xe5\\x90\\x88\\xe7\\xba\\xa6.sol\":910:938  bool public available = true */\n    tag_7:\n      callvalue\n      dup1\n      iszero\n      tag_35\n      jumpi\n      0x00\n      dup1\n      revert\n    tag_35:\n      pop\n      tag_36\n      tag_37\n      jump\t// in\n    tag_36:\n      mload(0x40)\n      tag_38\n      swap2\n      swap1\n      tag_34\n      jump\t// in\n    tag_38:\n      mload(0x40)\n      dup1\n      swap2\n      sub\n      swap1\n      return\n        /* \"contracts/\\xe4\\xbc\\x97\\xe7\\xad\\xb9\\xe5\\x90\\x88\\xe7\\xba\\xa6.sol\":698:734  uint256 public immutable fundingGoal */\n    tag_8:\n      callvalue\n      dup1\n      iszero\n      tag_39\n      jumpi\n      0x00\n      dup1\n      revert\n    tag_39:\n      pop\n      tag_40\n      tag_41\n      jump\t// in\n    tag_40:\n      mload(0x40)\n      tag_42\n      swap2\n      swap1\n      tag_18\n      jump\t// in\n    tag_42:\n      mload(0x40)\n      dup1\n      swap2\n      sub\n      swap1\n      return\n        /* \"contracts/\\xe4\\xbc\\x97\\xe7\\xad\\xb9\\xe5\\x90\\x88\\xe7\\xba\\xa6.sol\":876:903  address[] public fundersKey */\n    tag_9:\n      callvalue\n      dup1\n      iszero\n      tag_43\n      jumpi\n      0x00\n      dup1\n      revert\n    tag_43:\n      pop\n      tag_44\n      0x04\n      dup1\n      calldatasize\n      sub\n      dup2\n      add\n      swap1\n      tag_45\n      swap2\n      swap1\n      tag_46\n      jump\t// in\n    tag_45:\n      tag_47\n      jump\t// in\n    tag_44:\n      mload(0x40)\n      tag_48\n      swap2\n      swap1\n      tag_29\n      jump\t// in\n    tag_48:\n      mload(0x40)\n      dup1\n      swap2\n      sub\n      swap1\n      return\n        /* \"contracts/\\xe4\\xbc\\x97\\xe7\\xad\\xb9\\xe5\\x90\\x88\\xe7\\xba\\xa6.sol\":2214:2309  function fundersLength() public view returns(uint256) {... */\n    tag_10:\n      callvalue\n      dup1\n      iszero\n      tag_49\n      jumpi\n      0x00\n      dup1\n      revert\n    tag_49:\n      pop\n      tag_50\n      tag_51\n      jump\t// in\n    tag_50:\n      mload(0x40)\n      tag_52\n      swap2\n      swap1\n      tag_18\n      jump\t// in\n    tag_52:\n      mload(0x40)\n      dup1\n      swap2\n      sub\n      swap1\n      return\n        /* \"contracts/\\xe4\\xbc\\x97\\xe7\\xad\\xb9\\xe5\\x90\\x88\\xe7\\xba\\xa6.sol\":774:816  mapping(address => uint256) public funders */\n    tag_16:\n      mstore(0x20, 0x01)\n      dup1\n      0x00\n      mstore\n      keccak256(0x00, 0x40)\n      0x00\n      swap2\n      pop\n      swap1\n      pop\n      sload\n      dup2\n      jump\t// out\n        /* \"contracts/\\xe4\\xbc\\x97\\xe7\\xad\\xb9\\xe5\\x90\\x88\\xe7\\xba\\xa6.sol\":740:768  uint256 public fundingAmount */\n    tag_21:\n      sload(0x00)\n      dup2\n      jump\t// out\n        /* \"contracts/\\xe4\\xbc\\x97\\xe7\\xad\\xb9\\xe5\\x90\\x88\\xe7\\xba\\xa6.sol\":1118:1912  function contrubute() external payable {... */\n    tag_24:\n        /* \"contracts/\\xe4\\xbc\\x97\\xe7\\xad\\xb9\\xe5\\x90\\x88\\xe7\\xba\\xa6.sol\":1175:1184  available */\n      0x04\n      0x00\n      swap1\n      sload\n      swap1\n      0x0100\n      exp\n      swap1\n      div\n      0xff\n      and\n        /* \"contracts/\\xe4\\xbc\\x97\\xe7\\xad\\xb9\\xe5\\x90\\x88\\xe7\\xba\\xa6.sol\":1167:1208  require(available, \"crowdfund is closed\") */\n      tag_54\n      jumpi\n      mload(0x40)\n      0x08c379a000000000000000000000000000000000000000000000000000000000\n      dup2\n      mstore\n      0x04\n      add\n      tag_55\n      swap1\n      tag_56\n      jump\t// in\n    tag_55:\n      mload(0x40)\n      dup1\n      swap2\n      sub\n      swap1\n      revert\n    tag_54:\n        /* \"contracts/\\xe4\\xbc\\x97\\xe7\\xad\\xb9\\xe5\\x90\\x88\\xe7\\xba\\xa6.sol\":1219:1249  uint256 potentialFundingAmount */\n      0x00\n        /* \"contracts/\\xe4\\xbc\\x97\\xe7\\xad\\xb9\\xe5\\x90\\x88\\xe7\\xba\\xa6.sol\":1268:1277  msg.value */\n      callvalue\n        /* \"contracts/\\xe4\\xbc\\x97\\xe7\\xad\\xb9\\xe5\\x90\\x88\\xe7\\xba\\xa6.sol\":1252:1265  fundingAmount */\n      sload(0x00)\n        /* \"contracts/\\xe4\\xbc\\x97\\xe7\\xad\\xb9\\xe5\\x90\\x88\\xe7\\xba\\xa6.sol\":1252:1277  fundingAmount + msg.value */\n      tag_57\n      swap2\n      swap1\n      tag_58\n      jump\t// in\n    tag_57:\n        /* \"contracts/\\xe4\\xbc\\x97\\xe7\\xad\\xb9\\xe5\\x90\\x88\\xe7\\xba\\xa6.sol\":1219:1277  uint256 potentialFundingAmount = fundingAmount + msg.value */\n      swap1\n      pop\n        /* \"contracts/\\xe4\\xbc\\x97\\xe7\\xad\\xb9\\xe5\\x90\\x88\\xe7\\xba\\xa6.sol\":1287:1307  uint256 refundAmount */\n      0x00\n        /* \"contracts/\\xe4\\xbc\\x97\\xe7\\xad\\xb9\\xe5\\x90\\x88\\xe7\\xba\\xa6.sol\":1351:1362  fundingGoal */\n      immutable(\"0xceebf77a833b30520287ddd9478ff51abbdffa30aa90a8d655dba0e8a79ce0c1\")\n        /* \"contracts/\\xe4\\xbc\\x97\\xe7\\xad\\xb9\\xe5\\x90\\x88\\xe7\\xba\\xa6.sol\":1326:1348  potentialFundingAmount */\n      dup3\n        /* \"contracts/\\xe4\\xbc\\x97\\xe7\\xad\\xb9\\xe5\\x90\\x88\\xe7\\xba\\xa6.sol\":1326:1362  potentialFundingAmount > fundingGoal */\n      gt\n        /* \"contracts/\\xe4\\xbc\\x97\\xe7\\xad\\xb9\\xe5\\x90\\x88\\xe7\\xba\\xa6.sol\":1322:1663  if (potentialFundingAmount > fundingGoal) {... */\n      iszero\n      tag_59\n      jumpi\n        /* \"contracts/\\xe4\\xbc\\x97\\xe7\\xad\\xb9\\xe5\\x90\\x88\\xe7\\xba\\xa6.sol\":1418:1429  fundingGoal */\n      immutable(\"0xceebf77a833b30520287ddd9478ff51abbdffa30aa90a8d655dba0e8a79ce0c1\")\n        /* \"contracts/\\xe4\\xbc\\x97\\xe7\\xad\\xb9\\xe5\\x90\\x88\\xe7\\xba\\xa6.sol\":1393:1415  potentialFundingAmount */\n      dup3\n        /* \"contracts/\\xe4\\xbc\\x97\\xe7\\xad\\xb9\\xe5\\x90\\x88\\xe7\\xba\\xa6.sol\":1393:1429  potentialFundingAmount - fundingGoal */\n      tag_60\n      swap2\n      swap1\n      tag_61\n      jump\t// in\n    tag_60:\n        /* \"contracts/\\xe4\\xbc\\x97\\xe7\\xad\\xb9\\xe5\\x90\\x88\\xe7\\xba\\xa6.sol\":1378:1429  refundAmount = potentialFundingAmount - fundingGoal */\n      swap1\n      pop\n        /* \"contracts/\\xe4\\xbc\\x97\\xe7\\xad\\xb9\\xe5\\x90\\x88\\xe7\\xba\\xa6.sol\":1479:1491  refundAmount */\n      dup1\n        /* \"contracts/\\xe4\\xbc\\x97\\xe7\\xad\\xb9\\xe5\\x90\\x88\\xe7\\xba\\xa6.sol\":1467:1476  msg.value */\n      callvalue\n        /* \"contracts/\\xe4\\xbc\\x97\\xe7\\xad\\xb9\\xe5\\x90\\x88\\xe7\\xba\\xa6.sol\":1467:1491  msg.value - refundAmount */\n      tag_62\n      swap2\n      swap1\n      tag_61\n      jump\t// in\n    tag_62:\n        /* \"contracts/\\xe4\\xbc\\x97\\xe7\\xad\\xb9\\xe5\\x90\\x88\\xe7\\xba\\xa6.sol\":1443:1450  funders */\n      0x01\n        /* \"contracts/\\xe4\\xbc\\x97\\xe7\\xad\\xb9\\xe5\\x90\\x88\\xe7\\xba\\xa6.sol\":1443:1462  funders[msg.sender] */\n      0x00\n        /* \"contracts/\\xe4\\xbc\\x97\\xe7\\xad\\xb9\\xe5\\x90\\x88\\xe7\\xba\\xa6.sol\":1451:1461  msg.sender */\n      caller\n        /* \"contracts/\\xe4\\xbc\\x97\\xe7\\xad\\xb9\\xe5\\x90\\x88\\xe7\\xba\\xa6.sol\":1443:1462  funders[msg.sender] */\n      0xffffffffffffffffffffffffffffffffffffffff\n      and\n      0xffffffffffffffffffffffffffffffffffffffff\n      and\n      dup2\n      mstore\n      0x20\n      add\n      swap1\n      dup2\n      mstore\n      0x20\n      add\n      0x00\n      keccak256\n      0x00\n        /* \"contracts/\\xe4\\xbc\\x97\\xe7\\xad\\xb9\\xe5\\x90\\x88\\xe7\\xba\\xa6.sol\":1443:1492  funders[msg.sender] += (msg.value - refundAmount) */\n      dup3\n      dup3\n      sload\n      tag_63\n      swap2\n      swap1\n      tag_58\n      jump\t// in\n    tag_63:\n      swap3\n      pop\n      pop\n      dup2\n      swap1\n      sstore\n      pop\n        /* \"contracts/\\xe4\\xbc\\x97\\xe7\\xad\\xb9\\xe5\\x90\\x88\\xe7\\xba\\xa6.sol\":1536:1548  refundAmount */\n      dup1\n        /* \"contracts/\\xe4\\xbc\\x97\\xe7\\xad\\xb9\\xe5\\x90\\x88\\xe7\\xba\\xa6.sol\":1524:1533  msg.value */\n      callvalue\n        /* \"contracts/\\xe4\\xbc\\x97\\xe7\\xad\\xb9\\xe5\\x90\\x88\\xe7\\xba\\xa6.sol\":1524:1548  msg.value - refundAmount */\n      tag_64\n      swap2\n      swap1\n      tag_61\n      jump\t// in\n    tag_64:\n        /* \"contracts/\\xe4\\xbc\\x97\\xe7\\xad\\xb9\\xe5\\x90\\x88\\xe7\\xba\\xa6.sol\":1506:1519  fundingAmount */\n      0x00\n      dup1\n        /* \"contracts/\\xe4\\xbc\\x97\\xe7\\xad\\xb9\\xe5\\x90\\x88\\xe7\\xba\\xa6.sol\":1506:1549  fundingAmount += (msg.value - refundAmount) */\n      dup3\n      dup3\n      sload\n      tag_65\n      swap2\n      swap1\n      tag_58\n      jump\t// in\n    tag_65:\n      swap3\n      pop\n      pop\n      dup2\n      swap1\n      sstore\n      pop\n        /* \"contracts/\\xe4\\xbc\\x97\\xe7\\xad\\xb9\\xe5\\x90\\x88\\xe7\\xba\\xa6.sol\":1322:1663  if (potentialFundingAmount > fundingGoal) {... */\n      jump(tag_66)\n    tag_59:\n        /* \"contracts/\\xe4\\xbc\\x97\\xe7\\xad\\xb9\\xe5\\x90\\x88\\xe7\\xba\\xa6.sol\":1603:1612  msg.value */\n      callvalue\n        /* \"contracts/\\xe4\\xbc\\x97\\xe7\\xad\\xb9\\xe5\\x90\\x88\\xe7\\xba\\xa6.sol\":1580:1587  funders */\n      0x01\n        /* \"contracts/\\xe4\\xbc\\x97\\xe7\\xad\\xb9\\xe5\\x90\\x88\\xe7\\xba\\xa6.sol\":1580:1599  funders[msg.sender] */\n      0x00\n        /* \"contracts/\\xe4\\xbc\\x97\\xe7\\xad\\xb9\\xe5\\x90\\x88\\xe7\\xba\\xa6.sol\":1588:1598  msg.sender */\n      caller\n        /* \"contracts/\\xe4\\xbc\\x97\\xe7\\xad\\xb9\\xe5\\x90\\x88\\xe7\\xba\\xa6.sol\":1580:1599  funders[msg.sender] */\n      0xffffffffffffffffffffffffffffffffffffffff\n      and\n      0xffffffffffffffffffffffffffffffffffffffff\n      and\n      dup2\n      mstore\n      0x20\n      add\n      swap1\n      dup2\n      mstore\n      0x20\n      add\n      0x00\n      keccak256\n      0x00\n        /* \"contracts/\\xe4\\xbc\\x97\\xe7\\xad\\xb9\\xe5\\x90\\x88\\xe7\\xba\\xa6.sol\":1580:1612  funders[msg.sender] += msg.value */\n      dup3\n      dup3\n      sload\n      tag_67\n      swap2\n      swap1\n      tag_58\n      jump\t// in\n    tag_67:\n      swap3\n      pop\n      pop\n      dup2\n      swap1\n      sstore\n      pop\n        /* \"contracts/\\xe4\\xbc\\x97\\xe7\\xad\\xb9\\xe5\\x90\\x88\\xe7\\xba\\xa6.sol\":1643:1652  msg.value */\n      callvalue\n        /* \"contracts/\\xe4\\xbc\\x97\\xe7\\xad\\xb9\\xe5\\x90\\x88\\xe7\\xba\\xa6.sol\":1626:1639  fundingAmount */\n      0x00\n      dup1\n        /* \"contracts/\\xe4\\xbc\\x97\\xe7\\xad\\xb9\\xe5\\x90\\x88\\xe7\\xba\\xa6.sol\":1626:1652  fundingAmount += msg.value */\n      dup3\n      dup3\n      sload\n      tag_68\n      swap2\n      swap1\n      tag_58\n      jump\t// in\n    tag_68:\n      swap3\n      pop\n      pop\n      dup2\n      swap1\n      sstore\n      pop\n        /* \"contracts/\\xe4\\xbc\\x97\\xe7\\xad\\xb9\\xe5\\x90\\x88\\xe7\\xba\\xa6.sol\":1322:1663  if (potentialFundingAmount > fundingGoal) {... */\n    tag_66:\n        /* \"contracts/\\xe4\\xbc\\x97\\xe7\\xad\\xb9\\xe5\\x90\\x88\\xe7\\xba\\xa6.sol\":1678:1693  fundersInserted */\n      0x02\n        /* \"contracts/\\xe4\\xbc\\x97\\xe7\\xad\\xb9\\xe5\\x90\\x88\\xe7\\xba\\xa6.sol\":1678:1705  fundersInserted[msg.sender] */\n      0x00\n        /* \"contracts/\\xe4\\xbc\\x97\\xe7\\xad\\xb9\\xe5\\x90\\x88\\xe7\\xba\\xa6.sol\":1694:1704  msg.sender */\n      caller\n        /* \"contracts/\\xe4\\xbc\\x97\\xe7\\xad\\xb9\\xe5\\x90\\x88\\xe7\\xba\\xa6.sol\":1678:1705  fundersInserted[msg.sender] */\n      0xffffffffffffffffffffffffffffffffffffffff\n      and\n      0xffffffffffffffffffffffffffffffffffffffff\n      and\n      dup2\n      mstore\n      0x20\n      add\n      swap1\n      dup2\n      mstore\n      0x20\n      add\n      0x00\n      keccak256\n      0x00\n      swap1\n      sload\n      swap1\n      0x0100\n      exp\n      swap1\n      div\n      0xff\n      and\n        /* \"contracts/\\xe4\\xbc\\x97\\xe7\\xad\\xb9\\xe5\\x90\\x88\\xe7\\xba\\xa6.sol\":1673:1807  if (!fundersInserted[msg.sender]) {... */\n      tag_69\n      jumpi\n        /* \"contracts/\\xe4\\xbc\\x97\\xe7\\xad\\xb9\\xe5\\x90\\x88\\xe7\\xba\\xa6.sol\":1751:1755  true */\n      0x01\n        /* \"contracts/\\xe4\\xbc\\x97\\xe7\\xad\\xb9\\xe5\\x90\\x88\\xe7\\xba\\xa6.sol\":1721:1736  fundersInserted */\n      0x02\n        /* \"contracts/\\xe4\\xbc\\x97\\xe7\\xad\\xb9\\xe5\\x90\\x88\\xe7\\xba\\xa6.sol\":1721:1748  fundersInserted[msg.sender] */\n      0x00\n        /* \"contracts/\\xe4\\xbc\\x97\\xe7\\xad\\xb9\\xe5\\x90\\x88\\xe7\\xba\\xa6.sol\":1737:1747  msg.sender */\n      caller\n        /* \"contracts/\\xe4\\xbc\\x97\\xe7\\xad\\xb9\\xe5\\x90\\x88\\xe7\\xba\\xa6.sol\":1721:1748  fundersInserted[msg.sender] */\n      0xffffffffffffffffffffffffffffffffffffffff\n      and\n      0xffffffffffffffffffffffffffffffffffffffff\n      and\n      dup2\n      mstore\n      0x20\n      add\n      swap1\n      dup2\n      mstore\n      0x20\n      add\n      0x00\n      keccak256\n      0x00\n        /* \"contracts/\\xe4\\xbc\\x97\\xe7\\xad\\xb9\\xe5\\x90\\x88\\xe7\\xba\\xa6.sol\":1721:1755  fundersInserted[msg.sender] = true */\n      0x0100\n      exp\n      dup2\n      sload\n      dup2\n      0xff\n      mul\n      not\n      and\n      swap1\n      dup4\n      iszero\n      iszero\n      mul\n      or\n      swap1\n      sstore\n      pop\n        /* \"contracts/\\xe4\\xbc\\x97\\xe7\\xad\\xb9\\xe5\\x90\\x88\\xe7\\xba\\xa6.sol\":1769:1779  fundersKey */\n      0x03\n        /* \"contracts/\\xe4\\xbc\\x97\\xe7\\xad\\xb9\\xe5\\x90\\x88\\xe7\\xba\\xa6.sol\":1785:1795  msg.sender */\n      caller\n        /* \"contracts/\\xe4\\xbc\\x97\\xe7\\xad\\xb9\\xe5\\x90\\x88\\xe7\\xba\\xa6.sol\":1769:1796  fundersKey.push(msg.sender) */\n      swap1\n      dup1\n      0x01\n      dup2\n      sload\n      add\n      dup1\n      dup3\n      sstore\n      dup1\n      swap2\n      pop\n      pop\n      0x01\n      swap1\n      sub\n      swap1\n      0x00\n      mstore\n      keccak256(0x00, 0x20)\n      add\n      0x00\n      swap1\n      swap2\n      swap1\n      swap2\n      swap1\n      swap2\n      0x0100\n      exp\n      dup2\n      sload\n      dup2\n      0xffffffffffffffffffffffffffffffffffffffff\n      mul\n      not\n      and\n      swap1\n      dup4\n      0xffffffffffffffffffffffffffffffffffffffff\n      and\n      mul\n      or\n      swap1\n      sstore\n      pop\n        /* \"contracts/\\xe4\\xbc\\x97\\xe7\\xad\\xb9\\xe5\\x90\\x88\\xe7\\xba\\xa6.sol\":1673:1807  if (!fundersInserted[msg.sender]) {... */\n    tag_69:\n        /* \"contracts/\\xe4\\xbc\\x97\\xe7\\xad\\xb9\\xe5\\x90\\x88\\xe7\\xba\\xa6.sol\":1836:1837  0 */\n      0x00\n        /* \"contracts/\\xe4\\xbc\\x97\\xe7\\xad\\xb9\\xe5\\x90\\x88\\xe7\\xba\\xa6.sol\":1821:1833  refundAmount */\n      dup2\n        /* \"contracts/\\xe4\\xbc\\x97\\xe7\\xad\\xb9\\xe5\\x90\\x88\\xe7\\xba\\xa6.sol\":1821:1837  refundAmount > 0 */\n      gt\n        /* \"contracts/\\xe4\\xbc\\x97\\xe7\\xad\\xb9\\xe5\\x90\\x88\\xe7\\xba\\xa6.sol\":1817:1906  if (refundAmount > 0) {... */\n      iszero\n      tag_71\n      jumpi\n        /* \"contracts/\\xe4\\xbc\\x97\\xe7\\xad\\xb9\\xe5\\x90\\x88\\xe7\\xba\\xa6.sol\":1861:1871  msg.sender */\n      caller\n        /* \"contracts/\\xe4\\xbc\\x97\\xe7\\xad\\xb9\\xe5\\x90\\x88\\xe7\\xba\\xa6.sol\":1853:1881  payable(msg.sender).transfer */\n      0xffffffffffffffffffffffffffffffffffffffff\n      and\n        /* \"contracts/\\xe4\\xbc\\x97\\xe7\\xad\\xb9\\xe5\\x90\\x88\\xe7\\xba\\xa6.sol\":1853:1895  payable(msg.sender).transfer(refundAmount) */\n      0x08fc\n        /* \"contracts/\\xe4\\xbc\\x97\\xe7\\xad\\xb9\\xe5\\x90\\x88\\xe7\\xba\\xa6.sol\":1882:1894  refundAmount */\n      dup3\n        /* \"contracts/\\xe4\\xbc\\x97\\xe7\\xad\\xb9\\xe5\\x90\\x88\\xe7\\xba\\xa6.sol\":1853:1895  payable(msg.sender).transfer(refundAmount) */\n      swap1\n      dup2\n      iszero\n      mul\n      swap1\n      mload(0x40)\n      0x00\n      mload(0x40)\n      dup1\n      dup4\n      sub\n      dup2\n      dup6\n      dup9\n      dup9\n      call\n      swap4\n      pop\n      pop\n      pop\n      pop\n      iszero\n      dup1\n      iszero\n      tag_73\n      jumpi\n      returndatasize\n      0x00\n      dup1\n      returndatacopy\n      revert(0x00, returndatasize)\n    tag_73:\n      pop\n        /* \"contracts/\\xe4\\xbc\\x97\\xe7\\xad\\xb9\\xe5\\x90\\x88\\xe7\\xba\\xa6.sol\":1817:1906  if (refundAmount > 0) {... */\n    tag_71:\n        /* \"contracts/\\xe4\\xbc\\x97\\xe7\\xad\\xb9\\xe5\\x90\\x88\\xe7\\xba\\xa6.sol\":1157:1912  {... */\n      pop\n      pop\n        /* \"contracts/\\xe4\\xbc\\x97\\xe7\\xad\\xb9\\xe5\\x90\\x88\\xe7\\xba\\xa6.sol\":1118:1912  function contrubute() external payable {... */\n      jump\t// out\n        /* \"contracts/\\xe4\\xbc\\x97\\xe7\\xad\\xb9\\xe5\\x90\\x88\\xe7\\xba\\xa6.sol\":656:692  address public immutable beneficiary */\n    tag_27:\n      immutable(\"0x2a80e1ef1d7842f27f2e6be0972bb708b9a135c38860dbe73c27c3486c34f4de\")\n      dup2\n      jump\t// out\n        /* \"contracts/\\xe4\\xbc\\x97\\xe7\\xad\\xb9\\xe5\\x90\\x88\\xe7\\xba\\xa6.sol\":1918:2208  function close() external returns(bool) {... */\n    tag_32:\n        /* \"contracts/\\xe4\\xbc\\x97\\xe7\\xad\\xb9\\xe5\\x90\\x88\\xe7\\xba\\xa6.sol\":1952:1956  bool */\n      0x00\n        /* \"contracts/\\xe4\\xbc\\x97\\xe7\\xad\\xb9\\xe5\\x90\\x88\\xe7\\xba\\xa6.sol\":1988:1999  fundingGoal */\n      immutable(\"0xceebf77a833b30520287ddd9478ff51abbdffa30aa90a8d655dba0e8a79ce0c1\")\n        /* \"contracts/\\xe4\\xbc\\x97\\xe7\\xad\\xb9\\xe5\\x90\\x88\\xe7\\xba\\xa6.sol\":1972:1985  fundingAmount */\n      sload(0x00)\n        /* \"contracts/\\xe4\\xbc\\x97\\xe7\\xad\\xb9\\xe5\\x90\\x88\\xe7\\xba\\xa6.sol\":1972:1999  fundingAmount < fundingGoal */\n      lt\n        /* \"contracts/\\xe4\\xbc\\x97\\xe7\\xad\\xb9\\xe5\\x90\\x88\\xe7\\xba\\xa6.sol\":1968:2038  if (fundingAmount < fundingGoal) {... */\n      iszero\n      tag_75\n      jumpi\n        /* \"contracts/\\xe4\\xbc\\x97\\xe7\\xad\\xb9\\xe5\\x90\\x88\\xe7\\xba\\xa6.sol\":2022:2027  false */\n      0x00\n        /* \"contracts/\\xe4\\xbc\\x97\\xe7\\xad\\xb9\\xe5\\x90\\x88\\xe7\\xba\\xa6.sol\":2015:2027  return false */\n      swap1\n      pop\n      jump(tag_74)\n        /* \"contracts/\\xe4\\xbc\\x97\\xe7\\xad\\xb9\\xe5\\x90\\x88\\xe7\\xba\\xa6.sol\":1968:2038  if (fundingAmount < fundingGoal) {... */\n    tag_75:\n        /* \"contracts/\\xe4\\xbc\\x97\\xe7\\xad\\xb9\\xe5\\x90\\x88\\xe7\\xba\\xa6.sol\":2048:2062  uint256 amount */\n      0x00\n        /* \"contracts/\\xe4\\xbc\\x97\\xe7\\xad\\xb9\\xe5\\x90\\x88\\xe7\\xba\\xa6.sol\":2065:2078  fundingAmount */\n      dup1\n      sload\n        /* \"contracts/\\xe4\\xbc\\x97\\xe7\\xad\\xb9\\xe5\\x90\\x88\\xe7\\xba\\xa6.sol\":2048:2078  uint256 amount = fundingAmount */\n      swap1\n      pop\n        /* \"contracts/\\xe4\\xbc\\x97\\xe7\\xad\\xb9\\xe5\\x90\\x88\\xe7\\xba\\xa6.sol\":2105:2106  0 */\n      0x00\n        /* \"contracts/\\xe4\\xbc\\x97\\xe7\\xad\\xb9\\xe5\\x90\\x88\\xe7\\xba\\xa6.sol\":2089:2102  fundingAmount */\n      dup1\n        /* \"contracts/\\xe4\\xbc\\x97\\xe7\\xad\\xb9\\xe5\\x90\\x88\\xe7\\xba\\xa6.sol\":2089:2106  fundingAmount = 0 */\n      dup2\n      swap1\n      sstore\n      pop\n        /* \"contracts/\\xe4\\xbc\\x97\\xe7\\xad\\xb9\\xe5\\x90\\x88\\xe7\\xba\\xa6.sol\":2128:2133  false */\n      0x00\n        /* \"contracts/\\xe4\\xbc\\x97\\xe7\\xad\\xb9\\xe5\\x90\\x88\\xe7\\xba\\xa6.sol\":2116:2125  available */\n      0x04\n      0x00\n        /* \"contracts/\\xe4\\xbc\\x97\\xe7\\xad\\xb9\\xe5\\x90\\x88\\xe7\\xba\\xa6.sol\":2116:2133  available = false */\n      0x0100\n      exp\n      dup2\n      sload\n      dup2\n      0xff\n      mul\n      not\n      and\n      swap1\n      dup4\n      iszero\n      iszero\n      mul\n      or\n      swap1\n      sstore\n      pop\n        /* \"contracts/\\xe4\\xbc\\x97\\xe7\\xad\\xb9\\xe5\\x90\\x88\\xe7\\xba\\xa6.sol\":2151:2162  beneficiary */\n      immutable(\"0x2a80e1ef1d7842f27f2e6be0972bb708b9a135c38860dbe73c27c3486c34f4de\")\n        /* \"contracts/\\xe4\\xbc\\x97\\xe7\\xad\\xb9\\xe5\\x90\\x88\\xe7\\xba\\xa6.sol\":2143:2172  payable(beneficiary).transfer */\n      0xffffffffffffffffffffffffffffffffffffffff\n      and\n        /* \"contracts/\\xe4\\xbc\\x97\\xe7\\xad\\xb9\\xe5\\x90\\x88\\xe7\\xba\\xa6.sol\":2143:2180  payable(beneficiary).transfer(amount) */\n      0x08fc\n        /* \"contracts/\\xe4\\xbc\\x97\\xe7\\xad\\xb9\\xe5\\x90\\x88\\xe7\\xba\\xa6.sol\":2173:2179  amount */\n      dup3\n        /* \"contracts/\\xe4\\xbc\\x97\\xe7\\xad\\xb9\\xe5\\x90\\x88\\xe7\\xba\\xa6.sol\":2143:2180  payable(beneficiary).transfer(amount) */\n      swap1\n      dup2\n      iszero\n      mul\n      swap1\n      mload(0x40)\n      0x00\n      mload(0x40)\n      dup1\n      dup4\n      sub\n      dup2\n      dup6\n      dup9\n      dup9\n      call\n      swap4\n      pop\n      pop\n      pop\n      pop\n      iszero\n      dup1\n      iszero\n      tag_77\n      jumpi\n      returndatasize\n      0x00\n      dup1\n      returndatacopy\n      revert(0x00, returndatasize)\n    tag_77:\n      pop\n        /* \"contracts/\\xe4\\xbc\\x97\\xe7\\xad\\xb9\\xe5\\x90\\x88\\xe7\\xba\\xa6.sol\":2197:2201  true */\n      0x01\n        /* \"contracts/\\xe4\\xbc\\x97\\xe7\\xad\\xb9\\xe5\\x90\\x88\\xe7\\xba\\xa6.sol\":2190:2201  return true */\n      swap2\n      pop\n      pop\n        /* \"contracts/\\xe4\\xbc\\x97\\xe7\\xad\\xb9\\xe5\\x90\\x88\\xe7\\xba\\xa6.sol\":1918:2208  function close() external returns(bool) {... */\n    tag_74:\n      swap1\n      jump\t// out\n        /* \"contracts/\\xe4\\xbc\\x97\\xe7\\xad\\xb9\\xe5\\x90\\x88\\xe7\\xba\\xa6.sol\":910:938  bool public available = true */\n    tag_37:\n      0x04\n      0x00\n      swap1\n      sload\n      swap1\n      0x0100\n      exp\n      swap1\n      div\n      0xff\n      and\n      dup2\n      jump\t// out\n        /* \"contracts/\\xe4\\xbc\\x97\\xe7\\xad\\xb9\\xe5\\x90\\x88\\xe7\\xba\\xa6.sol\":698:734  uint256 public immutable fundingGoal */\n    tag_41:\n      immutable(\"0xceebf77a833b30520287ddd9478ff51abbdffa30aa90a8d655dba0e8a79ce0c1\")\n      dup2\n      jump\t// out\n        /* \"contracts/\\xe4\\xbc\\x97\\xe7\\xad\\xb9\\xe5\\x90\\x88\\xe7\\xba\\xa6.sol\":876:903  address[] public fundersKey */\n    tag_47:\n      0x03\n      dup2\n      dup2\n      sload\n      dup2\n      lt\n      tag_78\n      jumpi\n      0x00\n      dup1\n      revert\n    tag_78:\n      swap1\n      0x00\n      mstore\n      keccak256(0x00, 0x20)\n      add\n      0x00\n      swap2\n      pop\n      sload\n      swap1\n      0x0100\n      exp\n      swap1\n      div\n      0xffffffffffffffffffffffffffffffffffffffff\n      and\n      dup2\n      jump\t// out\n        /* \"contracts/\\xe4\\xbc\\x97\\xe7\\xad\\xb9\\xe5\\x90\\x88\\xe7\\xba\\xa6.sol\":2214:2309  function fundersLength() public view returns(uint256) {... */\n    tag_51:\n        /* \"contracts/\\xe4\\xbc\\x97\\xe7\\xad\\xb9\\xe5\\x90\\x88\\xe7\\xba\\xa6.sol\":2259:2266  uint256 */\n      0x00\n        /* \"contracts/\\xe4\\xbc\\x97\\xe7\\xad\\xb9\\xe5\\x90\\x88\\xe7\\xba\\xa6.sol\":2285:2295  fundersKey */\n      0x03\n        /* \"contracts/\\xe4\\xbc\\x97\\xe7\\xad\\xb9\\xe5\\x90\\x88\\xe7\\xba\\xa6.sol\":2285:2302  fundersKey.length */\n      dup1\n      sload\n      swap1\n      pop\n        /* \"contracts/\\xe4\\xbc\\x97\\xe7\\xad\\xb9\\xe5\\x90\\x88\\xe7\\xba\\xa6.sol\":2278:2302  return fundersKey.length */\n      swap1\n      pop\n        /* \"contracts/\\xe4\\xbc\\x97\\xe7\\xad\\xb9\\xe5\\x90\\x88\\xe7\\xba\\xa6.sol\":2214:2309  function fundersLength() public view returns(uint256) {... */\n      swap1\n      jump\t// out\n        /* \"#utility.yul\":88:205   */\n    tag_82:\n        /* \"#utility.yul\":197:198   */\n      0x00\n        /* \"#utility.yul\":194:195   */\n      dup1\n        /* \"#utility.yul\":187:199   */\n      revert\n        /* \"#utility.yul\":334:460   */\n    tag_84:\n        /* \"#utility.yul\":371:378   */\n      0x00\n        /* \"#utility.yul\":411:453   */\n      0xffffffffffffffffffffffffffffffffffffffff\n        /* \"#utility.yul\":404:409   */\n      dup3\n        /* \"#utility.yul\":400:454   */\n      and\n        /* \"#utility.yul\":389:454   */\n      swap1\n      pop\n        /* \"#utility.yul\":334:460   */\n      swap2\n      swap1\n      pop\n      jump\t// out\n        /* \"#utility.yul\":466:562   */\n    tag_85:\n        /* \"#utility.yul\":503:510   */\n      0x00\n        /* \"#utility.yul\":532:556   */\n      tag_105\n        /* \"#utility.yul\":550:555   */\n      dup3\n        /* \"#utility.yul\":532:556   */\n      tag_84\n      jump\t// in\n    tag_105:\n        /* \"#utility.yul\":521:556   */\n      swap1\n      pop\n        /* \"#utility.yul\":466:562   */\n      swap2\n      swap1\n      pop\n      jump\t// out\n        /* \"#utility.yul\":568:690   */\n    tag_86:\n        /* \"#utility.yul\":641:665   */\n      tag_107\n        /* \"#utility.yul\":659:664   */\n      dup2\n        /* \"#utility.yul\":641:665   */\n      tag_85\n      jump\t// in\n    tag_107:\n        /* \"#utility.yul\":634:639   */\n      dup2\n        /* \"#utility.yul\":631:666   */\n      eq\n        /* \"#utility.yul\":621:684   */\n      tag_108\n      jumpi\n        /* \"#utility.yul\":680:681   */\n      0x00\n        /* \"#utility.yul\":677:678   */\n      dup1\n        /* \"#utility.yul\":670:682   */\n      revert\n        /* \"#utility.yul\":621:684   */\n    tag_108:\n        /* \"#utility.yul\":568:690   */\n      pop\n      jump\t// out\n        /* \"#utility.yul\":696:835   */\n    tag_87:\n        /* \"#utility.yul\":742:747   */\n      0x00\n        /* \"#utility.yul\":780:786   */\n      dup2\n        /* \"#utility.yul\":767:787   */\n      calldataload\n        /* \"#utility.yul\":758:787   */\n      swap1\n      pop\n        /* \"#utility.yul\":796:829   */\n      tag_110\n        /* \"#utility.yul\":823:828   */\n      dup2\n        /* \"#utility.yul\":796:829   */\n      tag_86\n      jump\t// in\n    tag_110:\n        /* \"#utility.yul\":696:835   */\n      swap3\n      swap2\n      pop\n      pop\n      jump\t// out\n        /* \"#utility.yul\":841:1170   */\n    tag_15:\n        /* \"#utility.yul\":900:906   */\n      0x00\n        /* \"#utility.yul\":949:951   */\n      0x20\n        /* \"#utility.yul\":937:946   */\n      dup3\n        /* \"#utility.yul\":928:935   */\n      dup5\n        /* \"#utility.yul\":924:947   */\n      sub\n        /* \"#utility.yul\":920:952   */\n      slt\n        /* \"#utility.yul\":917:1036   */\n      iszero\n      tag_112\n      jumpi\n        /* \"#utility.yul\":955:1034   */\n      tag_113\n      tag_82\n      jump\t// in\n    tag_113:\n        /* \"#utility.yul\":917:1036   */\n    tag_112:\n        /* \"#utility.yul\":1075:1076   */\n      0x00\n        /* \"#utility.yul\":1100:1153   */\n      tag_114\n        /* \"#utility.yul\":1145:1152   */\n      dup5\n        /* \"#utility.yul\":1136:1142   */\n      dup3\n        /* \"#utility.yul\":1125:1134   */\n      dup6\n        /* \"#utility.yul\":1121:1143   */\n      add\n        /* \"#utility.yul\":1100:1153   */\n      tag_87\n      jump\t// in\n    tag_114:\n        /* \"#utility.yul\":1090:1153   */\n      swap2\n      pop\n        /* \"#utility.yul\":1046:1163   */\n      pop\n        /* \"#utility.yul\":841:1170   */\n      swap3\n      swap2\n      pop\n      pop\n      jump\t// out\n        /* \"#utility.yul\":1176:1253   */\n    tag_88:\n        /* \"#utility.yul\":1213:1220   */\n      0x00\n        /* \"#utility.yul\":1242:1247   */\n      dup2\n        /* \"#utility.yul\":1231:1247   */\n      swap1\n      pop\n        /* \"#utility.yul\":1176:1253   */\n      swap2\n      swap1\n      pop\n      jump\t// out\n        /* \"#utility.yul\":1259:1377   */\n    tag_89:\n        /* \"#utility.yul\":1346:1370   */\n      tag_117\n        /* \"#utility.yul\":1364:1369   */\n      dup2\n        /* \"#utility.yul\":1346:1370   */\n      tag_88\n      jump\t// in\n    tag_117:\n        /* \"#utility.yul\":1341:1344   */\n      dup3\n        /* \"#utility.yul\":1334:1371   */\n      mstore\n        /* \"#utility.yul\":1259:1377   */\n      pop\n      pop\n      jump\t// out\n        /* \"#utility.yul\":1383:1605   */\n    tag_18:\n        /* \"#utility.yul\":1476:1480   */\n      0x00\n        /* \"#utility.yul\":1514:1516   */\n      0x20\n        /* \"#utility.yul\":1503:1512   */\n      dup3\n        /* \"#utility.yul\":1499:1517   */\n      add\n        /* \"#utility.yul\":1491:1517   */\n      swap1\n      pop\n        /* \"#utility.yul\":1527:1598   */\n      tag_119\n        /* \"#utility.yul\":1595:1596   */\n      0x00\n        /* \"#utility.yul\":1584:1593   */\n      dup4\n        /* \"#utility.yul\":1580:1597   */\n      add\n        /* \"#utility.yul\":1571:1577   */\n      dup5\n        /* \"#utility.yul\":1527:1598   */\n      tag_89\n      jump\t// in\n    tag_119:\n        /* \"#utility.yul\":1383:1605   */\n      swap3\n      swap2\n      pop\n      pop\n      jump\t// out\n        /* \"#utility.yul\":1611:1729   */\n    tag_90:\n        /* \"#utility.yul\":1698:1722   */\n      tag_121\n        /* \"#utility.yul\":1716:1721   */\n      dup2\n        /* \"#utility.yul\":1698:1722   */\n      tag_85\n      jump\t// in\n    tag_121:\n        /* \"#utility.yul\":1693:1696   */\n      dup3\n        /* \"#utility.yul\":1686:1723   */\n      mstore\n        /* \"#utility.yul\":1611:1729   */\n      pop\n      pop\n      jump\t// out\n        /* \"#utility.yul\":1735:1957   */\n    tag_29:\n        /* \"#utility.yul\":1828:1832   */\n      0x00\n        /* \"#utility.yul\":1866:1868   */\n      0x20\n        /* \"#utility.yul\":1855:1864   */\n      dup3\n        /* \"#utility.yul\":1851:1869   */\n      add\n        /* \"#utility.yul\":1843:1869   */\n      swap1\n      pop\n        /* \"#utility.yul\":1879:1950   */\n      tag_123\n        /* \"#utility.yul\":1947:1948   */\n      0x00\n        /* \"#utility.yul\":1936:1945   */\n      dup4\n        /* \"#utility.yul\":1932:1949   */\n      add\n        /* \"#utility.yul\":1923:1929   */\n      dup5\n        /* \"#utility.yul\":1879:1950   */\n      tag_90\n      jump\t// in\n    tag_123:\n        /* \"#utility.yul\":1735:1957   */\n      swap3\n      swap2\n      pop\n      pop\n      jump\t// out\n        /* \"#utility.yul\":1963:2053   */\n    tag_91:\n        /* \"#utility.yul\":1997:2004   */\n      0x00\n        /* \"#utility.yul\":2040:2045   */\n      dup2\n        /* \"#utility.yul\":2033:2046   */\n      iszero\n        /* \"#utility.yul\":2026:2047   */\n      iszero\n        /* \"#utility.yul\":2015:2047   */\n      swap1\n      pop\n        /* \"#utility.yul\":1963:2053   */\n      swap2\n      swap1\n      pop\n      jump\t// out\n        /* \"#utility.yul\":2059:2168   */\n    tag_92:\n        /* \"#utility.yul\":2140:2161   */\n      tag_126\n        /* \"#utility.yul\":2155:2160   */\n      dup2\n        /* \"#utility.yul\":2140:2161   */\n      tag_91\n      jump\t// in\n    tag_126:\n        /* \"#utility.yul\":2135:2138   */\n      dup3\n        /* \"#utility.yul\":2128:2162   */\n      mstore\n        /* \"#utility.yul\":2059:2168   */\n      pop\n      pop\n      jump\t// out\n        /* \"#utility.yul\":2174:2384   */\n    tag_34:\n        /* \"#utility.yul\":2261:2265   */\n      0x00\n        /* \"#utility.yul\":2299:2301   */\n      0x20\n        /* \"#utility.yul\":2288:2297   */\n      dup3\n        /* \"#utility.yul\":2284:2302   */\n      add\n        /* \"#utility.yul\":2276:2302   */\n      swap1\n      pop\n        /* \"#utility.yul\":2312:2377   */\n      tag_128\n        /* \"#utility.yul\":2374:2375   */\n      0x00\n        /* \"#utility.yul\":2363:2372   */\n      dup4\n        /* \"#utility.yul\":2359:2376   */\n      add\n        /* \"#utility.yul\":2350:2356   */\n      dup5\n        /* \"#utility.yul\":2312:2377   */\n      tag_92\n      jump\t// in\n    tag_128:\n        /* \"#utility.yul\":2174:2384   */\n      swap3\n      swap2\n      pop\n      pop\n      jump\t// out\n        /* \"#utility.yul\":2390:2512   */\n    tag_93:\n        /* \"#utility.yul\":2463:2487   */\n      tag_130\n        /* \"#utility.yul\":2481:2486   */\n      dup2\n        /* \"#utility.yul\":2463:2487   */\n      tag_88\n      jump\t// in\n    tag_130:\n        /* \"#utility.yul\":2456:2461   */\n      dup2\n        /* \"#utility.yul\":2453:2488   */\n      eq\n        /* \"#utility.yul\":2443:2506   */\n      tag_131\n      jumpi\n        /* \"#utility.yul\":2502:2503   */\n      0x00\n        /* \"#utility.yul\":2499:2500   */\n      dup1\n        /* \"#utility.yul\":2492:2504   */\n      revert\n        /* \"#utility.yul\":2443:2506   */\n    tag_131:\n        /* \"#utility.yul\":2390:2512   */\n      pop\n      jump\t// out\n        /* \"#utility.yul\":2518:2657   */\n    tag_94:\n        /* \"#utility.yul\":2564:2569   */\n      0x00\n        /* \"#utility.yul\":2602:2608   */\n      dup2\n        /* \"#utility.yul\":2589:2609   */\n      calldataload\n        /* \"#utility.yul\":2580:2609   */\n      swap1\n      pop\n        /* \"#utility.yul\":2618:2651   */\n      tag_133\n        /* \"#utility.yul\":2645:2650   */\n      dup2\n        /* \"#utility.yul\":2618:2651   */\n      tag_93\n      jump\t// in\n    tag_133:\n        /* \"#utility.yul\":2518:2657   */\n      swap3\n      swap2\n      pop\n      pop\n      jump\t// out\n        /* \"#utility.yul\":2663:2992   */\n    tag_46:\n        /* \"#utility.yul\":2722:2728   */\n      0x00\n        /* \"#utility.yul\":2771:2773   */\n      0x20\n        /* \"#utility.yul\":2759:2768   */\n      dup3\n        /* \"#utility.yul\":2750:2757   */\n      dup5\n        /* \"#utility.yul\":2746:2769   */\n      sub\n        /* \"#utility.yul\":2742:2774   */\n      slt\n        /* \"#utility.yul\":2739:2858   */\n      iszero\n      tag_135\n      jumpi\n        /* \"#utility.yul\":2777:2856   */\n      tag_136\n      tag_82\n      jump\t// in\n    tag_136:\n        /* \"#utility.yul\":2739:2858   */\n    tag_135:\n        /* \"#utility.yul\":2897:2898   */\n      0x00\n        /* \"#utility.yul\":2922:2975   */\n      tag_137\n        /* \"#utility.yul\":2967:2974   */\n      dup5\n        /* \"#utility.yul\":2958:2964   */\n      dup3\n        /* \"#utility.yul\":2947:2956   */\n      dup6\n        /* \"#utility.yul\":2943:2965   */\n      add\n        /* \"#utility.yul\":2922:2975   */\n      tag_94\n      jump\t// in\n    tag_137:\n        /* \"#utility.yul\":2912:2975   */\n      swap2\n      pop\n        /* \"#utility.yul\":2868:2985   */\n      pop\n        /* \"#utility.yul\":2663:2992   */\n      swap3\n      swap2\n      pop\n      pop\n      jump\t// out\n        /* \"#utility.yul\":2998:3167   */\n    tag_95:\n        /* \"#utility.yul\":3082:3093   */\n      0x00\n        /* \"#utility.yul\":3116:3122   */\n      dup3\n        /* \"#utility.yul\":3111:3114   */\n      dup3\n        /* \"#utility.yul\":3104:3123   */\n      mstore\n        /* \"#utility.yul\":3156:3160   */\n      0x20\n        /* \"#utility.yul\":3151:3154   */\n      dup3\n        /* \"#utility.yul\":3147:3161   */\n      add\n        /* \"#utility.yul\":3132:3161   */\n      swap1\n      pop\n        /* \"#utility.yul\":2998:3167   */\n      swap3\n      swap2\n      pop\n      pop\n      jump\t// out\n        /* \"#utility.yul\":3173:3342   */\n    tag_96:\n        /* \"#utility.yul\":3313:3334   */\n      0x63726f776466756e6420697320636c6f73656400000000000000000000000000\n        /* \"#utility.yul\":3309:3310   */\n      0x00\n        /* \"#utility.yul\":3301:3307   */\n      dup3\n        /* \"#utility.yul\":3297:3311   */\n      add\n        /* \"#utility.yul\":3290:3335   */\n      mstore\n        /* \"#utility.yul\":3173:3342   */\n      pop\n      jump\t// out\n        /* \"#utility.yul\":3348:3714   */\n    tag_97:\n        /* \"#utility.yul\":3490:3493   */\n      0x00\n        /* \"#utility.yul\":3511:3578   */\n      tag_141\n        /* \"#utility.yul\":3575:3577   */\n      0x13\n        /* \"#utility.yul\":3570:3573   */\n      dup4\n        /* \"#utility.yul\":3511:3578   */\n      tag_95\n      jump\t// in\n    tag_141:\n        /* \"#utility.yul\":3504:3578   */\n      swap2\n      pop\n        /* \"#utility.yul\":3587:3680   */\n      tag_142\n        /* \"#utility.yul\":3676:3679   */\n      dup3\n        /* \"#utility.yul\":3587:3680   */\n      tag_96\n      jump\t// in\n    tag_142:\n        /* \"#utility.yul\":3705:3707   */\n      0x20\n        /* \"#utility.yul\":3700:3703   */\n      dup3\n        /* \"#utility.yul\":3696:3708   */\n      add\n        /* \"#utility.yul\":3689:3708   */\n      swap1\n      pop\n        /* \"#utility.yul\":3348:3714   */\n      swap2\n      swap1\n      pop\n      jump\t// out\n        /* \"#utility.yul\":3720:4139   */\n    tag_56:\n        /* \"#utility.yul\":3886:3890   */\n      0x00\n        /* \"#utility.yul\":3924:3926   */\n      0x20\n        /* \"#utility.yul\":3913:3922   */\n      dup3\n        /* \"#utility.yul\":3909:3927   */\n      add\n        /* \"#utility.yul\":3901:3927   */\n      swap1\n      pop\n        /* \"#utility.yul\":3973:3982   */\n      dup2\n        /* \"#utility.yul\":3967:3971   */\n      dup2\n        /* \"#utility.yul\":3963:3983   */\n      sub\n        /* \"#utility.yul\":3959:3960   */\n      0x00\n        /* \"#utility.yul\":3948:3957   */\n      dup4\n        /* \"#utility.yul\":3944:3961   */\n      add\n        /* \"#utility.yul\":3937:3984   */\n      mstore\n        /* \"#utility.yul\":4001:4132   */\n      tag_144\n        /* \"#utility.yul\":4127:4131   */\n      dup2\n        /* \"#utility.yul\":4001:4132   */\n      tag_97\n      jump\t// in\n    tag_144:\n        /* \"#utility.yul\":3993:4132   */\n      swap1\n      pop\n        /* \"#utility.yul\":3720:4139   */\n      swap2\n      swap1\n      pop\n      jump\t// out\n        /* \"#utility.yul\":4145:4325   */\n    tag_98:\n        /* \"#utility.yul\":4193:4270   */\n      0x4e487b7100000000000000000000000000000000000000000000000000000000\n        /* \"#utility.yul\":4190:4191   */\n      0x00\n        /* \"#utility.yul\":4183:4271   */\n      mstore\n        /* \"#utility.yul\":4290:4294   */\n      0x11\n        /* \"#utility.yul\":4287:4288   */\n      0x04\n        /* \"#utility.yul\":4280:4295   */\n      mstore\n        /* \"#utility.yul\":4314:4318   */\n      0x24\n        /* \"#utility.yul\":4311:4312   */\n      0x00\n        /* \"#utility.yul\":4304:4319   */\n      revert\n        /* \"#utility.yul\":4331:4522   */\n    tag_58:\n        /* \"#utility.yul\":4371:4374   */\n      0x00\n        /* \"#utility.yul\":4390:4410   */\n      tag_147\n        /* \"#utility.yul\":4408:4409   */\n      dup3\n        /* \"#utility.yul\":4390:4410   */\n      tag_88\n      jump\t// in\n    tag_147:\n        /* \"#utility.yul\":4385:4410   */\n      swap2\n      pop\n        /* \"#utility.yul\":4424:4444   */\n      tag_148\n        /* \"#utility.yul\":4442:4443   */\n      dup4\n        /* \"#utility.yul\":4424:4444   */\n      tag_88\n      jump\t// in\n    tag_148:\n        /* \"#utility.yul\":4419:4444   */\n      swap3\n      pop\n        /* \"#utility.yul\":4467:4468   */\n      dup3\n        /* \"#utility.yul\":4464:4465   */\n      dup3\n        /* \"#utility.yul\":4460:4469   */\n      add\n        /* \"#utility.yul\":4453:4469   */\n      swap1\n      pop\n        /* \"#utility.yul\":4488:4491   */\n      dup1\n        /* \"#utility.yul\":4485:4486   */\n      dup3\n        /* \"#utility.yul\":4482:4492   */\n      gt\n        /* \"#utility.yul\":4479:4515   */\n      iszero\n      tag_149\n      jumpi\n        /* \"#utility.yul\":4495:4513   */\n      tag_150\n      tag_98\n      jump\t// in\n    tag_150:\n        /* \"#utility.yul\":4479:4515   */\n    tag_149:\n        /* \"#utility.yul\":4331:4522   */\n      swap3\n      swap2\n      pop\n      pop\n      jump\t// out\n        /* \"#utility.yul\":4528:4722   */\n    tag_61:\n        /* \"#utility.yul\":4568:4572   */\n      0x00\n        /* \"#utility.yul\":4588:4608   */\n      tag_152\n        /* \"#utility.yul\":4606:4607   */\n      dup3\n        /* \"#utility.yul\":4588:4608   */\n      tag_88\n      jump\t// in\n    tag_152:\n        /* \"#utility.yul\":4583:4608   */\n      swap2\n      pop\n        /* \"#utility.yul\":4622:4642   */\n      tag_153\n        /* \"#utility.yul\":4640:4641   */\n      dup4\n        /* \"#utility.yul\":4622:4642   */\n      tag_88\n      jump\t// in\n    tag_153:\n        /* \"#utility.yul\":4617:4642   */\n      swap3\n      pop\n        /* \"#utility.yul\":4666:4667   */\n      dup3\n        /* \"#utility.yul\":4663:4664   */\n      dup3\n        /* \"#utility.yul\":4659:4668   */\n      sub\n        /* \"#utility.yul\":4651:4668   */\n      swap1\n      pop\n        /* \"#utility.yul\":4690:4691   */\n      dup2\n        /* \"#utility.yul\":4684:4688   */\n      dup2\n        /* \"#utility.yul\":4681:4692   */\n      gt\n        /* \"#utility.yul\":4678:4715   */\n      iszero\n      tag_154\n      jumpi\n        /* \"#utility.yul\":4695:4713   */\n      tag_155\n      tag_98\n      jump\t// in\n    tag_155:\n        /* \"#utility.yul\":4678:4715   */\n    tag_154:\n        /* \"#utility.yul\":4528:4722   */\n      swap3\n      swap2\n      pop\n      pop\n      jump\t// out\n\n    auxdata: 0xa26469706673582212208077d9f681d460b45c752bd12526b0cd09c20d123a1359627d01de88fc2626dd64736f6c634300081a0033\n}\n",
				"bytecode": {
					"linkReferences": {},
					"object": "60c0604052600160045f6101000a81548160ff021916908315150217905550348015610029575f80fd5b50604051610ac4380380610ac4833981810160405281019061004b919061011f565b8173ffffffffffffffffffffffffffffffffffffffff1660808173ffffffffffffffffffffffffffffffffffffffff16815250508060a08181525050505061015d565b5f80fd5b5f73ffffffffffffffffffffffffffffffffffffffff82169050919050565b5f6100bb82610092565b9050919050565b6100cb816100b1565b81146100d5575f80fd5b50565b5f815190506100e6816100c2565b92915050565b5f819050919050565b6100fe816100ec565b8114610108575f80fd5b50565b5f81519050610119816100f5565b92915050565b5f80604083850312156101355761013461008e565b5b5f610142858286016100d8565b92505060206101538582860161010b565b9150509250929050565b60805160a05161092a61019a5f395f8181610282015281816102aa01528181610542015261061601525f818161051d0152610597015261092a5ff3fe608060405260043610610085575f3560e01c806343d726d61161005857806343d726d61461012357806348a0d7541461014d5780637a3a0e8414610177578063d7ac1677146101a1578063e3d94735146101dd57610085565b8063031b36771461008957806304a79c97146100c5578063223a9892146100ef57806338af3eed146100f9575b5f80fd5b348015610094575f80fd5b506100af60048036038101906100aa91906106dd565b610207565b6040516100bc9190610720565b60405180910390f35b3480156100d0575f80fd5b506100d961021c565b6040516100e69190610720565b60405180910390f35b6100f7610221565b005b348015610104575f80fd5b5061010d61051b565b60405161011a9190610748565b60405180910390f35b34801561012e575f80fd5b5061013761053f565b604051610144919061077b565b60405180910390f35b348015610158575f80fd5b50610161610602565b60405161016e919061077b565b60405180910390f35b348015610182575f80fd5b5061018b610614565b6040516101989190610720565b60405180910390f35b3480156101ac575f80fd5b506101c760048036038101906101c291906107be565b610638565b6040516101d49190610748565b60405180910390f35b3480156101e8575f80fd5b506101f1610673565b6040516101fe9190610720565b60405180910390f35b6001602052805f5260405f205f915090505481565b5f5481565b60045f9054906101000a900460ff1661026f576040517f08c379a000000000000000000000000000000000000000000000000000000000815260040161026690610843565b60405180910390fd5b5f345f5461027d919061088e565b90505f7f000000000000000000000000000000000000000000000000000000000000000082111561035b577f0000000000000000000000000000000000000000000000000000000000000000826102d491906108c1565b905080346102e291906108c1565b60015f3373ffffffffffffffffffffffffffffffffffffffff1673ffffffffffffffffffffffffffffffffffffffff1681526020019081526020015f205f82825461032d919061088e565b92505081905550803461034091906108c1565b5f8082825461034f919061088e565b925050819055506103c6565b3460015f3373ffffffffffffffffffffffffffffffffffffffff1673ffffffffffffffffffffffffffffffffffffffff1681526020019081526020015f205f8282546103a7919061088e565b92505081905550345f808282546103be919061088e565b925050819055505b60025f3373ffffffffffffffffffffffffffffffffffffffff1673ffffffffffffffffffffffffffffffffffffffff1681526020019081526020015f205f9054906101000a900460ff166104ca57600160025f3373ffffffffffffffffffffffffffffffffffffffff1673ffffffffffffffffffffffffffffffffffffffff1681526020019081526020015f205f6101000a81548160ff021916908315150217905550600333908060018154018082558091505060019003905f5260205f20015f9091909190916101000a81548173ffffffffffffffffffffffffffffffffffffffff021916908373ffffffffffffffffffffffffffffffffffffffff1602179055505b5f811115610517573373ffffffffffffffffffffffffffffffffffffffff166108fc8290811502906040515f60405180830381858888f19350505050158015610515573d5f803e3d5ffd5b505b5050565b7f000000000000000000000000000000000000000000000000000000000000000081565b5f7f00000000000000000000000000000000000000000000000000000000000000005f541015610571575f90506105ff565b5f805490505f80819055505f60045f6101000a81548160ff0219169083151502179055507f000000000000000000000000000000000000000000000000000000000000000073ffffffffffffffffffffffffffffffffffffffff166108fc8290811502906040515f60405180830381858888f193505050501580156105f8573d5f803e3d5ffd5b5060019150505b90565b60045f9054906101000a900460ff1681565b7f000000000000000000000000000000000000000000000000000000000000000081565b60038181548110610647575f80fd5b905f5260205f20015f915054906101000a900473ffffffffffffffffffffffffffffffffffffffff1681565b5f600380549050905090565b5f80fd5b5f73ffffffffffffffffffffffffffffffffffffffff82169050919050565b5f6106ac82610683565b9050919050565b6106bc816106a2565b81146106c6575f80fd5b50565b5f813590506106d7816106b3565b92915050565b5f602082840312156106f2576106f161067f565b5b5f6106ff848285016106c9565b91505092915050565b5f819050919050565b61071a81610708565b82525050565b5f6020820190506107335f830184610711565b92915050565b610742816106a2565b82525050565b5f60208201905061075b5f830184610739565b92915050565b5f8115159050919050565b61077581610761565b82525050565b5f60208201905061078e5f83018461076c565b92915050565b61079d81610708565b81146107a7575f80fd5b50565b5f813590506107b881610794565b92915050565b5f602082840312156107d3576107d261067f565b5b5f6107e0848285016107aa565b91505092915050565b5f82825260208201905092915050565b7f63726f776466756e6420697320636c6f736564000000000000000000000000005f82015250565b5f61082d6013836107e9565b9150610838826107f9565b602082019050919050565b5f6020820190508181035f83015261085a81610821565b9050919050565b7f4e487b71000000000000000000000000000000000000000000000000000000005f52601160045260245ffd5b5f61089882610708565b91506108a383610708565b92508282019050808211156108bb576108ba610861565b5b92915050565b5f6108cb82610708565b91506108d683610708565b92508282039050818111156108ee576108ed610861565b5b9291505056fea26469706673582212208077d9f681d460b45c752bd12526b0cd09c20d123a1359627d01de88fc2626dd64736f6c634300081a0033",
					"opcodes": "PUSH1 0xC0 PUSH1 0x40 MSTORE PUSH1 0x1 PUSH1 0x4 PUSH0 PUSH2 0x100 EXP DUP2 SLOAD DUP2 PUSH1 0xFF MUL NOT AND SWAP1 DUP4 ISZERO ISZERO MUL OR SWAP1 SSTORE POP CALLVALUE DUP1 ISZERO PUSH2 0x29 JUMPI PUSH0 DUP1 REVERT JUMPDEST POP PUSH1 0x40 MLOAD PUSH2 0xAC4 CODESIZE SUB DUP1 PUSH2 0xAC4 DUP4 CODECOPY DUP2 DUP2 ADD PUSH1 0x40 MSTORE DUP2 ADD SWAP1 PUSH2 0x4B SWAP2 SWAP1 PUSH2 0x11F JUMP JUMPDEST DUP2 PUSH20 0xFFFFFFFFFFFFFFFFFFFFFFFFFFFFFFFFFFFFFFFF AND PUSH1 0x80 DUP2 PUSH20 0xFFFFFFFFFFFFFFFFFFFFFFFFFFFFFFFFFFFFFFFF AND DUP2 MSTORE POP POP DUP1 PUSH1 0xA0 DUP2 DUP2 MSTORE POP POP POP POP PUSH2 0x15D JUMP JUMPDEST PUSH0 DUP1 REVERT JUMPDEST PUSH0 PUSH20 0xFFFFFFFFFFFFFFFFFFFFFFFFFFFFFFFFFFFFFFFF DUP3 AND SWAP1 POP SWAP2 SWAP1 POP JUMP JUMPDEST PUSH0 PUSH2 0xBB DUP3 PUSH2 0x92 JUMP JUMPDEST SWAP1 POP SWAP2 SWAP1 POP JUMP JUMPDEST PUSH2 0xCB DUP2 PUSH2 0xB1 JUMP JUMPDEST DUP2 EQ PUSH2 0xD5 JUMPI PUSH0 DUP1 REVERT JUMPDEST POP JUMP JUMPDEST PUSH0 DUP2 MLOAD SWAP1 POP PUSH2 0xE6 DUP2 PUSH2 0xC2 JUMP JUMPDEST SWAP3 SWAP2 POP POP JUMP JUMPDEST PUSH0 DUP2 SWAP1 POP SWAP2 SWAP1 POP JUMP JUMPDEST PUSH2 0xFE DUP2 PUSH2 0xEC JUMP JUMPDEST DUP2 EQ PUSH2 0x108 JUMPI PUSH0 DUP1 REVERT JUMPDEST POP JUMP JUMPDEST PUSH0 DUP2 MLOAD SWAP1 POP PUSH2 0x119 DUP2 PUSH2 0xF5 JUMP JUMPDEST SWAP3 SWAP2 POP POP JUMP JUMPDEST PUSH0 DUP1 PUSH1 0x40 DUP4 DUP6 SUB SLT ISZERO PUSH2 0x135 JUMPI PUSH2 0x134 PUSH2 0x8E JUMP JUMPDEST JUMPDEST PUSH0 PUSH2 0x142 DUP6 DUP3 DUP7 ADD PUSH2 0xD8 JUMP JUMPDEST SWAP3 POP POP PUSH1 0x20 PUSH2 0x153 DUP6 DUP3 DUP7 ADD PUSH2 0x10B JUMP JUMPDEST SWAP2 POP POP SWAP3 POP SWAP3 SWAP1 POP JUMP JUMPDEST PUSH1 0x80 MLOAD PUSH1 0xA0 MLOAD PUSH2 0x92A PUSH2 0x19A PUSH0 CODECOPY PUSH0 DUP2 DUP2 PUSH2 0x282 ADD MSTORE DUP2 DUP2 PUSH2 0x2AA ADD MSTORE DUP2 DUP2 PUSH2 0x542 ADD MSTORE PUSH2 0x616 ADD MSTORE PUSH0 DUP2 DUP2 PUSH2 0x51D ADD MSTORE PUSH2 0x597 ADD MSTORE PUSH2 0x92A PUSH0 RETURN INVALID PUSH1 0x80 PUSH1 0x40 MSTORE PUSH1 0x4 CALLDATASIZE LT PUSH2 0x85 JUMPI PUSH0 CALLDATALOAD PUSH1 0xE0 SHR DUP1 PUSH4 0x43D726D6 GT PUSH2 0x58 JUMPI DUP1 PUSH4 0x43D726D6 EQ PUSH2 0x123 JUMPI DUP1 PUSH4 0x48A0D754 EQ PUSH2 0x14D JUMPI DUP1 PUSH4 0x7A3A0E84 EQ PUSH2 0x177 JUMPI DUP1 PUSH4 0xD7AC1677 EQ PUSH2 0x1A1 JUMPI DUP1 PUSH4 0xE3D94735 EQ PUSH2 0x1DD JUMPI PUSH2 0x85 JUMP JUMPDEST DUP1 PUSH4 0x31B3677 EQ PUSH2 0x89 JUMPI DUP1 PUSH4 0x4A79C97 EQ PUSH2 0xC5 JUMPI DUP1 PUSH4 0x223A9892 EQ PUSH2 0xEF JUMPI DUP1 PUSH4 0x38AF3EED EQ PUSH2 0xF9 JUMPI JUMPDEST PUSH0 DUP1 REVERT JUMPDEST CALLVALUE DUP1 ISZERO PUSH2 0x94 JUMPI PUSH0 DUP1 REVERT JUMPDEST POP PUSH2 0xAF PUSH1 0x4 DUP1 CALLDATASIZE SUB DUP2 ADD SWAP1 PUSH2 0xAA SWAP2 SWAP1 PUSH2 0x6DD JUMP JUMPDEST PUSH2 0x207 JUMP JUMPDEST PUSH1 0x40 MLOAD PUSH2 0xBC SWAP2 SWAP1 PUSH2 0x720 JUMP JUMPDEST PUSH1 0x40 MLOAD DUP1 SWAP2 SUB SWAP1 RETURN JUMPDEST CALLVALUE DUP1 ISZERO PUSH2 0xD0 JUMPI PUSH0 DUP1 REVERT JUMPDEST POP PUSH2 0xD9 PUSH2 0x21C JUMP JUMPDEST PUSH1 0x40 MLOAD PUSH2 0xE6 SWAP2 SWAP1 PUSH2 0x720 JUMP JUMPDEST PUSH1 0x40 MLOAD DUP1 SWAP2 SUB SWAP1 RETURN JUMPDEST PUSH2 0xF7 PUSH2 0x221 JUMP JUMPDEST STOP JUMPDEST CALLVALUE DUP1 ISZERO PUSH2 0x104 JUMPI PUSH0 DUP1 REVERT JUMPDEST POP PUSH2 0x10D PUSH2 0x51B JUMP JUMPDEST PUSH1 0x40 MLOAD PUSH2 0x11A SWAP2 SWAP1 PUSH2 0x748 JUMP JUMPDEST PUSH1 0x40 MLOAD DUP1 SWAP2 SUB SWAP1 RETURN JUMPDEST CALLVALUE DUP1 ISZERO PUSH2 0x12E JUMPI PUSH0 DUP1 REVERT JUMPDEST POP PUSH2 0x137 PUSH2 0x53F JUMP JUMPDEST PUSH1 0x40 MLOAD PUSH2 0x144 SWAP2 SWAP1 PUSH2 0x77B JUMP JUMPDEST PUSH1 0x40 MLOAD DUP1 SWAP2 SUB SWAP1 RETURN JUMPDEST CALLVALUE DUP1 ISZERO PUSH2 0x158 JUMPI PUSH0 DUP1 REVERT JUMPDEST POP PUSH2 0x161 PUSH2 0x602 JUMP JUMPDEST PUSH1 0x40 MLOAD PUSH2 0x16E SWAP2 SWAP1 PUSH2 0x77B JUMP JUMPDEST PUSH1 0x40 MLOAD DUP1 SWAP2 SUB SWAP1 RETURN JUMPDEST CALLVALUE DUP1 ISZERO PUSH2 0x182 JUMPI PUSH0 DUP1 REVERT JUMPDEST POP PUSH2 0x18B PUSH2 0x614 JUMP JUMPDEST PUSH1 0x40 MLOAD PUSH2 0x198 SWAP2 SWAP1 PUSH2 0x720 JUMP JUMPDEST PUSH1 0x40 MLOAD DUP1 SWAP2 SUB SWAP1 RETURN JUMPDEST CALLVALUE DUP1 ISZERO PUSH2 0x1AC JUMPI PUSH0 DUP1 REVERT JUMPDEST POP PUSH2 0x1C7 PUSH1 0x4 DUP1 CALLDATASIZE SUB DUP2 ADD SWAP1 PUSH2 0x1C2 SWAP2 SWAP1 PUSH2 0x7BE JUMP JUMPDEST PUSH2 0x638 JUMP JUMPDEST PUSH1 0x40 MLOAD PUSH2 0x1D4 SWAP2 SWAP1 PUSH2 0x748 JUMP JUMPDEST PUSH1 0x40 MLOAD DUP1 SWAP2 SUB SWAP1 RETURN JUMPDEST CALLVALUE DUP1 ISZERO PUSH2 0x1E8 JUMPI PUSH0 DUP1 REVERT JUMPDEST POP PUSH2 0x1F1 PUSH2 0x673 JUMP JUMPDEST PUSH1 0x40 MLOAD PUSH2 0x1FE SWAP2 SWAP1 PUSH2 0x720 JUMP JUMPDEST PUSH1 0x40 MLOAD DUP1 SWAP2 SUB SWAP1 RETURN JUMPDEST PUSH1 0x1 PUSH1 0x20 MSTORE DUP1 PUSH0 MSTORE PUSH1 0x40 PUSH0 KECCAK256 PUSH0 SWAP2 POP SWAP1 POP SLOAD DUP2 JUMP JUMPDEST PUSH0 SLOAD DUP2 JUMP JUMPDEST PUSH1 0x4 PUSH0 SWAP1 SLOAD SWAP1 PUSH2 0x100 EXP SWAP1 DIV PUSH1 0xFF AND PUSH2 0x26F JUMPI PUSH1 0x40 MLOAD PUSH32 0x8C379A000000000000000000000000000000000000000000000000000000000 DUP2 MSTORE PUSH1 0x4 ADD PUSH2 0x266 SWAP1 PUSH2 0x843 JUMP JUMPDEST PUSH1 0x40 MLOAD DUP1 SWAP2 SUB SWAP1 REVERT JUMPDEST PUSH0 CALLVALUE PUSH0 SLOAD PUSH2 0x27D SWAP2 SWAP1 PUSH2 0x88E JUMP JUMPDEST SWAP1 POP PUSH0 PUSH32 0x0 DUP3 GT ISZERO PUSH2 0x35B JUMPI PUSH32 0x0 DUP3 PUSH2 0x2D4 SWAP2 SWAP1 PUSH2 0x8C1 JUMP JUMPDEST SWAP1 POP DUP1 CALLVALUE PUSH2 0x2E2 SWAP2 SWAP1 PUSH2 0x8C1 JUMP JUMPDEST PUSH1 0x1 PUSH0 CALLER PUSH20 0xFFFFFFFFFFFFFFFFFFFFFFFFFFFFFFFFFFFFFFFF AND PUSH20 0xFFFFFFFFFFFFFFFFFFFFFFFFFFFFFFFFFFFFFFFF AND DUP2 MSTORE PUSH1 0x20 ADD SWAP1 DUP2 MSTORE PUSH1 0x20 ADD PUSH0 KECCAK256 PUSH0 DUP3 DUP3 SLOAD PUSH2 0x32D SWAP2 SWAP1 PUSH2 0x88E JUMP JUMPDEST SWAP3 POP POP DUP2 SWAP1 SSTORE POP DUP1 CALLVALUE PUSH2 0x340 SWAP2 SWAP1 PUSH2 0x8C1 JUMP JUMPDEST PUSH0 DUP1 DUP3 DUP3 SLOAD PUSH2 0x34F SWAP2 SWAP1 PUSH2 0x88E JUMP JUMPDEST SWAP3 POP POP DUP2 SWAP1 SSTORE POP PUSH2 0x3C6 JUMP JUMPDEST CALLVALUE PUSH1 0x1 PUSH0 CALLER PUSH20 0xFFFFFFFFFFFFFFFFFFFFFFFFFFFFFFFFFFFFFFFF AND PUSH20 0xFFFFFFFFFFFFFFFFFFFFFFFFFFFFFFFFFFFFFFFF AND DUP2 MSTORE PUSH1 0x20 ADD SWAP1 DUP2 MSTORE PUSH1 0x20 ADD PUSH0 KECCAK256 PUSH0 DUP3 DUP3 SLOAD PUSH2 0x3A7 SWAP2 SWAP1 PUSH2 0x88E JUMP JUMPDEST SWAP3 POP POP DUP2 SWAP1 SSTORE POP CALLVALUE PUSH0 DUP1 DUP3 DUP3 SLOAD PUSH2 0x3BE SWAP2 SWAP1 PUSH2 0x88E JUMP JUMPDEST SWAP3 POP POP DUP2 SWAP1 SSTORE POP JUMPDEST PUSH1 0x2 PUSH0 CALLER PUSH20 0xFFFFFFFFFFFFFFFFFFFFFFFFFFFFFFFFFFFFFFFF AND PUSH20 0xFFFFFFFFFFFFFFFFFFFFFFFFFFFFFFFFFFFFFFFF AND DUP2 MSTORE PUSH1 0x20 ADD SWAP1 DUP2 MSTORE PUSH1 0x20 ADD PUSH0 KECCAK256 PUSH0 SWAP1 SLOAD SWAP1 PUSH2 0x100 EXP SWAP1 DIV PUSH1 0xFF AND PUSH2 0x4CA JUMPI PUSH1 0x1 PUSH1 0x2 PUSH0 CALLER PUSH20 0xFFFFFFFFFFFFFFFFFFFFFFFFFFFFFFFFFFFFFFFF AND PUSH20 0xFFFFFFFFFFFFFFFFFFFFFFFFFFFFFFFFFFFFFFFF AND DUP2 MSTORE PUSH1 0x20 ADD SWAP1 DUP2 MSTORE PUSH1 0x20 ADD PUSH0 KECCAK256 PUSH0 PUSH2 0x100 EXP DUP2 SLOAD DUP2 PUSH1 0xFF MUL NOT AND SWAP1 DUP4 ISZERO ISZERO MUL OR SWAP1 SSTORE POP PUSH1 0x3 CALLER SWAP1 DUP1 PUSH1 0x1 DUP2 SLOAD ADD DUP1 DUP3 SSTORE DUP1 SWAP2 POP POP PUSH1 0x1 SWAP1 SUB SWAP1 PUSH0 MSTORE PUSH1 0x20 PUSH0 KECCAK256 ADD PUSH0 SWAP1 SWAP2 SWAP1 SWAP2 SWAP1 SWAP2 PUSH2 0x100 EXP DUP2 SLOAD DUP2 PUSH20 0xFFFFFFFFFFFFFFFFFFFFFFFFFFFFFFFFFFFFFFFF MUL NOT AND SWAP1 DUP4 PUSH20 0xFFFFFFFFFFFFFFFFFFFFFFFFFFFFFFFFFFFFFFFF AND MUL OR SWAP1 SSTORE POP JUMPDEST PUSH0 DUP2 GT ISZERO PUSH2 0x517 JUMPI CALLER PUSH20 0xFFFFFFFFFFFFFFFFFFFFFFFFFFFFFFFFFFFFFFFF AND PUSH2 0x8FC DUP3 SWAP1 DUP2 ISZERO MUL SWAP1 PUSH1 0x40 MLOAD PUSH0 PUSH1 0x40 MLOAD DUP1 DUP4 SUB DUP2 DUP6 DUP9 DUP9 CALL SWAP4 POP POP POP POP ISZERO DUP1 ISZERO PUSH2 0x515 JUMPI RETURNDATASIZE PUSH0 DUP1 RETURNDATACOPY RETURNDATASIZE PUSH0 REVERT JUMPDEST POP JUMPDEST POP POP JUMP JUMPDEST PUSH32 0x0 DUP2 JUMP JUMPDEST PUSH0 PUSH32 0x0 PUSH0 SLOAD LT ISZERO PUSH2 0x571 JUMPI PUSH0 SWAP1 POP PUSH2 0x5FF JUMP JUMPDEST PUSH0 DUP1 SLOAD SWAP1 POP PUSH0 DUP1 DUP2 SWAP1 SSTORE POP PUSH0 PUSH1 0x4 PUSH0 PUSH2 0x100 EXP DUP2 SLOAD DUP2 PUSH1 0xFF MUL NOT AND SWAP1 DUP4 ISZERO ISZERO MUL OR SWAP1 SSTORE POP PUSH32 0x0 PUSH20 0xFFFFFFFFFFFFFFFFFFFFFFFFFFFFFFFFFFFFFFFF AND PUSH2 0x8FC DUP3 SWAP1 DUP2 ISZERO MUL SWAP1 PUSH1 0x40 MLOAD PUSH0 PUSH1 0x40 MLOAD DUP1 DUP4 SUB DUP2 DUP6 DUP9 DUP9 CALL SWAP4 POP POP POP POP ISZERO DUP1 ISZERO PUSH2 0x5F8 JUMPI RETURNDATASIZE PUSH0 DUP1 RETURNDATACOPY RETURNDATASIZE PUSH0 REVERT JUMPDEST POP PUSH1 0x1 SWAP2 POP POP JUMPDEST SWAP1 JUMP JUMPDEST PUSH1 0x4 PUSH0 SWAP1 SLOAD SWAP1 PUSH2 0x100 EXP SWAP1 DIV PUSH1 0xFF AND DUP2 JUMP JUMPDEST PUSH32 0x0 DUP2 JUMP JUMPDEST PUSH1 0x3 DUP2 DUP2 SLOAD DUP2 LT PUSH2 0x647 JUMPI PUSH0 DUP1 REVERT JUMPDEST SWAP1 PUSH0 MSTORE PUSH1 0x20 PUSH0 KECCAK256 ADD PUSH0 SWAP2 POP SLOAD SWAP1 PUSH2 0x100 EXP SWAP1 DIV PUSH20 0xFFFFFFFFFFFFFFFFFFFFFFFFFFFFFFFFFFFFFFFF AND DUP2 JUMP JUMPDEST PUSH0 PUSH1 0x3 DUP1 SLOAD SWAP1 POP SWAP1 POP SWAP1 JUMP JUMPDEST PUSH0 DUP1 REVERT JUMPDEST PUSH0 PUSH20 0xFFFFFFFFFFFFFFFFFFFFFFFFFFFFFFFFFFFFFFFF DUP3 AND SWAP1 POP SWAP2 SWAP1 POP JUMP JUMPDEST PUSH0 PUSH2 0x6AC DUP3 PUSH2 0x683 JUMP JUMPDEST SWAP1 POP SWAP2 SWAP1 POP JUMP JUMPDEST PUSH2 0x6BC DUP2 PUSH2 0x6A2 JUMP JUMPDEST DUP2 EQ PUSH2 0x6C6 JUMPI PUSH0 DUP1 REVERT JUMPDEST POP JUMP JUMPDEST PUSH0 DUP2 CALLDATALOAD SWAP1 POP PUSH2 0x6D7 DUP2 PUSH2 0x6B3 JUMP JUMPDEST SWAP3 SWAP2 POP POP JUMP JUMPDEST PUSH0 PUSH1 0x20 DUP3 DUP5 SUB SLT ISZERO PUSH2 0x6F2 JUMPI PUSH2 0x6F1 PUSH2 0x67F JUMP JUMPDEST JUMPDEST PUSH0 PUSH2 0x6FF DUP5 DUP3 DUP6 ADD PUSH2 0x6C9 JUMP JUMPDEST SWAP2 POP POP SWAP3 SWAP2 POP POP JUMP JUMPDEST PUSH0 DUP2 SWAP1 POP SWAP2 SWAP1 POP JUMP JUMPDEST PUSH2 0x71A DUP2 PUSH2 0x708 JUMP JUMPDEST DUP3 MSTORE POP POP JUMP JUMPDEST PUSH0 PUSH1 0x20 DUP3 ADD SWAP1 POP PUSH2 0x733 PUSH0 DUP4 ADD DUP5 PUSH2 0x711 JUMP JUMPDEST SWAP3 SWAP2 POP POP JUMP JUMPDEST PUSH2 0x742 DUP2 PUSH2 0x6A2 JUMP JUMPDEST DUP3 MSTORE POP POP JUMP JUMPDEST PUSH0 PUSH1 0x20 DUP3 ADD SWAP1 POP PUSH2 0x75B PUSH0 DUP4 ADD DUP5 PUSH2 0x739 JUMP JUMPDEST SWAP3 SWAP2 POP POP JUMP JUMPDEST PUSH0 DUP2 ISZERO ISZERO SWAP1 POP SWAP2 SWAP1 POP JUMP JUMPDEST PUSH2 0x775 DUP2 PUSH2 0x761 JUMP JUMPDEST DUP3 MSTORE POP POP JUMP JUMPDEST PUSH0 PUSH1 0x20 DUP3 ADD SWAP1 POP PUSH2 0x78E PUSH0 DUP4 ADD DUP5 PUSH2 0x76C JUMP JUMPDEST SWAP3 SWAP2 POP POP JUMP JUMPDEST PUSH2 0x79D DUP2 PUSH2 0x708 JUMP JUMPDEST DUP2 EQ PUSH2 0x7A7 JUMPI PUSH0 DUP1 REVERT JUMPDEST POP JUMP JUMPDEST PUSH0 DUP2 CALLDATALOAD SWAP1 POP PUSH2 0x7B8 DUP2 PUSH2 0x794 JUMP JUMPDEST SWAP3 SWAP2 POP POP JUMP JUMPDEST PUSH0 PUSH1 0x20 DUP3 DUP5 SUB SLT ISZERO PUSH2 0x7D3 JUMPI PUSH2 0x7D2 PUSH2 0x67F JUMP JUMPDEST JUMPDEST PUSH0 PUSH2 0x7E0 DUP5 DUP3 DUP6 ADD PUSH2 0x7AA JUMP JUMPDEST SWAP2 POP POP SWAP3 SWAP2 POP POP JUMP JUMPDEST PUSH0 DUP3 DUP3 MSTORE PUSH1 0x20 DUP3 ADD SWAP1 POP SWAP3 SWAP2 POP POP JUMP JUMPDEST PUSH32 0x63726F776466756E6420697320636C6F73656400000000000000000000000000 PUSH0 DUP3 ADD MSTORE POP JUMP JUMPDEST PUSH0 PUSH2 0x82D PUSH1 0x13 DUP4 PUSH2 0x7E9 JUMP JUMPDEST SWAP2 POP PUSH2 0x838 DUP3 PUSH2 0x7F9 JUMP JUMPDEST PUSH1 0x20 DUP3 ADD SWAP1 POP SWAP2 SWAP1 POP JUMP JUMPDEST PUSH0 PUSH1 0x20 DUP3 ADD SWAP1 POP DUP2 DUP2 SUB PUSH0 DUP4 ADD MSTORE PUSH2 0x85A DUP2 PUSH2 0x821 JUMP JUMPDEST SWAP1 POP SWAP2 SWAP1 POP JUMP JUMPDEST PUSH32 0x4E487B7100000000000000000000000000000000000000000000000000000000 PUSH0 MSTORE PUSH1 0x11 PUSH1 0x4 MSTORE PUSH1 0x24 PUSH0 REVERT JUMPDEST PUSH0 PUSH2 0x898 DUP3 PUSH2 0x708 JUMP JUMPDEST SWAP2 POP PUSH2 0x8A3 DUP4 PUSH2 0x708 JUMP JUMPDEST SWAP3 POP DUP3 DUP3 ADD SWAP1 POP DUP1 DUP3 GT ISZERO PUSH2 0x8BB JUMPI PUSH2 0x8BA PUSH2 0x861 JUMP JUMPDEST JUMPDEST SWAP3 SWAP2 POP POP JUMP JUMPDEST PUSH0 PUSH2 0x8CB DUP3 PUSH2 0x708 JUMP JUMPDEST SWAP2 POP PUSH2 0x8D6 DUP4 PUSH2 0x708 JUMP JUMPDEST SWAP3 POP DUP3 DUP3 SUB SWAP1 POP DUP2 DUP2 GT ISZERO PUSH2 0x8EE JUMPI PUSH2 0x8ED PUSH2 0x861 JUMP JUMPDEST JUMPDEST SWAP3 SWAP2 POP POP JUMP INVALID LOG2 PUSH5 0x6970667358 0x22 SLT KECCAK256 DUP1 PUSH24 0xD9F681D460B45C752BD12526B0CD09C20D123A1359627D01 0xDE DUP9 0xFC 0x26 0x26 0xDD PUSH5 0x736F6C6343 STOP ADDMOD BYTE STOP CALLER "
				},
				"gasEstimates": {
					"creation": {
						"codeDepositCost": "469200",
						"executionCost": "infinite",
						"totalCost": "infinite"
					},
					"external": {
						"available()": "2488",
						"beneficiary()": "infinite",
						"close()": "infinite",
						"contrubute()": "infinite",
						"funders(address)": "2803",
						"fundersKey(uint256)": "5010",
						"fundersLength()": "2528",
						"fundingAmount()": "2447",
						"fundingGoal()": "infinite"
					}
				},
				"methodIdentifiers": {
					"available()": "48a0d754",
					"beneficiary()": "38af3eed",
					"close()": "43d726d6",
					"contrubute()": "223a9892",
					"funders(address)": "031b3677",
					"fundersKey(uint256)": "d7ac1677",
					"fundersLength()": "e3d94735",
					"fundingAmount()": "04a79c97",
					"fundingGoal()": "7a3a0e84"
				}
			},
			"storageLayout": {
				"storage": [
					{
						"astId": 7,
						"contract": "contracts/众筹合约.sol:CrowdFund",
						"label": "fundingAmount",
						"offset": 0,
						"slot": "0",
						"type": "t_uint256"
					},
					{
						"astId": 11,
						"contract": "contracts/众筹合约.sol:CrowdFund",
						"label": "funders",
						"offset": 0,
						"slot": "1",
						"type": "t_mapping(t_address,t_uint256)"
					},
					{
						"astId": 15,
						"contract": "contracts/众筹合约.sol:CrowdFund",
						"label": "fundersInserted",
						"offset": 0,
						"slot": "2",
						"type": "t_mapping(t_address,t_bool)"
					},
					{
						"astId": 18,
						"contract": "contracts/众筹合约.sol:CrowdFund",
						"label": "fundersKey",
						"offset": 0,
						"slot": "3",
						"type": "t_array(t_address)dyn_storage"
					},
					{
						"astId": 21,
						"contract": "contracts/众筹合约.sol:CrowdFund",
						"label": "available",
						"offset": 0,
						"slot": "4",
						"type": "t_bool"
					}
				],
				"types": {
					"t_address": {
						"encoding": "inplace",
						"label": "address",
						"numberOfBytes": "20"
					},
					"t_array(t_address)dyn_storage": {
						"base": "t_address",
						"encoding": "dynamic_array",
						"label": "address[]",
						"numberOfBytes": "32"
					},
					"t_bool": {
						"encoding": "inplace",
						"label": "bool",
						"numberOfBytes": "1"
					},
					"t_mapping(t_address,t_bool)": {
						"encoding": "mapping",
						"key": "t_address",
						"label": "mapping(address => bool)",
						"numberOfBytes": "32",
						"value": "t_bool"
					},
					"t_mapping(t_address,t_uint256)": {
						"encoding": "mapping",
						"key": "t_address",
						"label": "mapping(address => uint256)",
						"numberOfBytes": "32",
						"value": "t_uint256"
					},
					"t_uint256": {
						"encoding": "inplace",
						"label": "uint256",
						"numberOfBytes": "32"
					}
				}
			},
			"userdoc": {
				"kind": "user",
				"methods": {},
				"version": 1
			}
		}
	}
}