{
  "_format": "hh-sol-artifact-1",
  "contractName": "multiSignature",
  "sourceName": "contracts/multiSignature/multiSignature.sol",
  "abi": [
    {
      "inputs": [
        {
          "internalType": "address[]",
          "name": "owners",
          "type": "address[]"
        },
        {
          "internalType": "uint256",
          "name": "limitedSignNum",
          "type": "uint256"
        }
      ],
      "stateMutability": "nonpayable",
      "type": "constructor"
    },
    {
      "anonymous": false,
      "inputs": [
        {
          "indexed": true,
          "internalType": "address",
          "name": "from",
          "type": "address"
        },
        {
          "indexed": true,
          "internalType": "address",
          "name": "to",
          "type": "address"
        },
        {
          "indexed": true,
          "internalType": "bytes32",
          "name": "msgHash",
          "type": "bytes32"
        }
      ],
      "name": "CreateApplication",
      "type": "event"
    },
    {
      "anonymous": false,
      "inputs": [
        {
          "indexed": true,
          "internalType": "address",
          "name": "from",
          "type": "address"
        },
        {
          "indexed": true,
          "internalType": "bytes32",
          "name": "msgHash",
          "type": "bytes32"
        },
        {
          "indexed": false,
          "internalType": "uint256",
          "name": "index",
          "type": "uint256"
        }
      ],
      "name": "RevokeApplication",
      "type": "event"
    },
    {
      "anonymous": false,
      "inputs": [
        {
          "indexed": true,
          "internalType": "address",
          "name": "from",
          "type": "address"
        },
        {
          "indexed": true,
          "internalType": "bytes32",
          "name": "msgHash",
          "type": "bytes32"
        },
        {
          "indexed": false,
          "internalType": "uint256",
          "name": "index",
          "type": "uint256"
        }
      ],
      "name": "SignApplication",
      "type": "event"
    },
    {
      "anonymous": false,
      "inputs": [
        {
          "indexed": true,
          "internalType": "address",
          "name": "sender",
          "type": "address"
        },
        {
          "indexed": true,
          "internalType": "address",
          "name": "oldOwner",
          "type": "address"
        },
        {
          "indexed": true,
          "internalType": "address",
          "name": "newOwner",
          "type": "address"
        }
      ],
      "name": "TransferOwner",
      "type": "event"
    },
    {
      "inputs": [
        {
          "internalType": "address",
          "name": "to",
          "type": "address"
        }
      ],
      "name": "createApplication",
      "outputs": [
        {
          "internalType": "uint256",
          "name": "",
          "type": "uint256"
        }
      ],
      "stateMutability": "nonpayable",
      "type": "function"
    },
    {
      "inputs": [
        {
          "internalType": "bytes32",
          "name": "msghash",
          "type": "bytes32"
        }
      ],
      "name": "getApplicationCount",
      "outputs": [
        {
          "internalType": "uint256",
          "name": "",
          "type": "uint256"
        }
      ],
      "stateMutability": "view",
      "type": "function"
    },
    {
      "inputs": [
        {
          "internalType": "address",
          "name": "from",
          "type": "address"
        },
        {
          "internalType": "address",
          "name": "to",
          "type": "address"
        }
      ],
      "name": "getApplicationHash",
      "outputs": [
        {
          "internalType": "bytes32",
          "name": "",
          "type": "bytes32"
        }
      ],
      "stateMutability": "pure",
      "type": "function"
    },
    {
      "inputs": [
        {
          "internalType": "bytes32",
          "name": "msghash",
          "type": "bytes32"
        },
        {
          "internalType": "uint256",
          "name": "index",
          "type": "uint256"
        }
      ],
      "name": "getApplicationInfo",
      "outputs": [
        {
          "internalType": "address",
          "name": "",
          "type": "address"
        },
        {
          "internalType": "address[]",
          "name": "",
          "type": "address[]"
        }
      ],
      "stateMutability": "view",
      "type": "function"
    },
    {
      "inputs": [],
      "name": "getMultiSignatureAddress",
      "outputs": [
        {
          "internalType": "address",
          "name": "",
          "type": "address"
        }
      ],
      "stateMutability": "view",
      "type": "function"
    },
    {
      "inputs": [
        {
          "internalType": "bytes32",
          "name": "msghash",
          "type": "bytes32"
        },
        {
          "internalType": "uint256",
          "name": "lastIndex",
          "type": "uint256"
        }
      ],
      "name": "getValidSignature",
      "outputs": [
        {
          "internalType": "uint256",
          "name": "",
          "type": "uint256"
        }
      ],
      "stateMutability": "view",
      "type": "function"
    },
    {
      "inputs": [
        {
          "internalType": "bytes32",
          "name": "msghash",
          "type": "bytes32"
        }
      ],
      "name": "revokeSignApplication",
      "outputs": [],
      "stateMutability": "nonpayable",
      "type": "function"
    },
    {
      "inputs": [
        {
          "internalType": "bytes32",
          "name": "msghash",
          "type": "bytes32"
        }
      ],
      "name": "signApplication",
      "outputs": [],
      "stateMutability": "nonpayable",
      "type": "function"
    },
    {
      "inputs": [
        {
          "internalType": "bytes32",
          "name": "",
          "type": "bytes32"
        },
        {
          "internalType": "uint256",
          "name": "",
          "type": "uint256"
        }
      ],
      "name": "signatureMap",
      "outputs": [
        {
          "internalType": "address",
          "name": "applicant",
          "type": "address"
        }
      ],
      "stateMutability": "view",
      "type": "function"
    },
    {
      "inputs": [
        {
          "internalType": "uint256",
          "name": "",
          "type": "uint256"
        }
      ],
      "name": "signatureOwners",
      "outputs": [
        {
          "internalType": "address",
          "name": "",
          "type": "address"
        }
      ],
      "stateMutability": "view",
      "type": "function"
    },
    {
      "inputs": [],
      "name": "threshold",
      "outputs": [
        {
          "internalType": "uint256",
          "name": "",
          "type": "uint256"
        }
      ],
      "stateMutability": "view",
      "type": "function"
    },
    {
      "inputs": [
        {
          "internalType": "uint256",
          "name": "index",
          "type": "uint256"
        },
        {
          "internalType": "address",
          "name": "newOwner",
          "type": "address"
        }
      ],
      "name": "transferOwner",
      "outputs": [],
      "stateMutability": "nonpayable",
      "type": "function"
    }
  ],
  "bytecode": "0x60806040523480156200001157600080fd5b50604051620019e9380380620019e9833981810160405260408110156200003757600080fd5b81019080805160405193929190846401000000008211156200005857600080fd5b838201915060208201858111156200006f57600080fd5b82518660208202830111640100000000821117156200008d57600080fd5b8083526020830192505050908051906020019060200280838360005b83811015620000c6578082015181840152602081019050620000a9565b505050509050016040526020018051906020019092919050505030600073ffffffffffffffffffffffffffffffffffffffff168173ffffffffffffffffffffffffffffffffffffffff16141562000169576040517f08c379a0000000000000000000000000000000000000000000000000000000008152600401808060200182810382526043815260200180620019a66043913960600191505060405180910390fd5b620001b47f8dddb57468cf5338ee155397ad1400a7a564308824f517d20a8a7c516523bb4760001c8273ffffffffffffffffffffffffffffffffffffffff166200023960201b60201c565b50808251101562000211576040517f08c379a00000000000000000000000000000000000000000000000000000000081526004018080602001828103825260488152602001806200195e6048913960600191505060405180910390fd5b81600090805190602001906200022992919062000240565b508060018190555050506200030c565b8082555050565b828054828255906000526020600020908101928215620002bc579160200282015b82811115620002bb5782518260006101000a81548173ffffffffffffffffffffffffffffffffffffffff021916908373ffffffffffffffffffffffffffffffffffffffff1602179055509160200191906001019062000261565b5b509050620002cb9190620002cf565b5090565b5b808211156200030857600081816101000a81549073ffffffffffffffffffffffffffffffffffffffff021916905550600101620002d0565b5090565b611642806200031c6000396000f3fe608060405234801561001057600080fd5b50600436106100b45760003560e01c80635e63ff3f116100715780635e63ff3f1461026f578063638c7e17146102c7578063665bbfde146102fb5780637000823d14610329578063cf1951651461036b578063df18ec8f146103cd576100b4565b80631ebaa166146100b95780631ebe85ba14610105578063256750591461015357806335157be11461018157806339270196146101d957806342cde4e814610251575b600080fd5b6100ef600480360360408110156100cf57600080fd5b810190808035906020019092919080359060200190929190505050610477565b6040518082815260200191505060405180910390f35b6101516004803603604081101561011b57600080fd5b8101908080359060200190929190803573ffffffffffffffffffffffffffffffffffffffff1690602001909291905050506104f1565b005b61017f6004803603602081101561016957600080fd5b8101908080359060200190929190505050610746565b005b6101c36004803603602081101561019757600080fd5b81019080803573ffffffffffffffffffffffffffffffffffffffff16906020019092919050505061093d565b6040518082815260200191505060405180910390f35b61023b600480360360408110156101ef57600080fd5b81019080803573ffffffffffffffffffffffffffffffffffffffff169060200190929190803573ffffffffffffffffffffffffffffffffffffffff169060200190929190505050610ae0565b6040518082815260200191505060405180910390f35b610259610b4b565b6040518082815260200191505060405180910390f35b61029b6004803603602081101561028557600080fd5b8101908080359060200190929190505050610b51565b604051808273ffffffffffffffffffffffffffffffffffffffff16815260200191505060405180910390f35b6102cf610b8d565b604051808273ffffffffffffffffffffffffffffffffffffffff16815260200191505060405180910390f35b6103276004803603602081101561031157600080fd5b8101908080359060200190929190505050610bc0565b005b6103556004803603602081101561033f57600080fd5b8101908080359060200190929190505050610db6565b6040518082815260200191505060405180910390f35b6103a16004803603604081101561038157600080fd5b810190808035906020019092919080359060200190929190505050610dd6565b604051808273ffffffffffffffffffffffffffffffffffffffff16815260200191505060405180910390f35b610403600480360360408110156103e357600080fd5b810190808035906020019092919080359060200190929190505050610e2e565b604051808373ffffffffffffffffffffffffffffffffffffffff16815260200180602001828103825283818151815260200191508051906020019060200280838360005b83811015610462578082015181840152602081019050610447565b50505050905001935050505060405180910390f35b60008060026000858152602001908152602001600020905060008390505b81805490508110156104e4576001548282815481106104b057fe5b906000526020600020906002020160010180549050106104d75760018101925050506104eb565b8080600101915050610495565b5060009150505b92915050565b61058a33600080548060200260200160405190810160405280929190818152602001828054801561057757602002820191906000526020600020905b8160009054906101000a900473ffffffffffffffffffffffffffffffffffffffff1673ffffffffffffffffffffffffffffffffffffffff168152602001906001019080831161052d575b5050505050610fdf90919063ffffffff16565b6105df576040517f08c379a000000000000000000000000000000000000000000000000000000000815260040180806020018281038252603481526020018061154f6034913960400191505060405180910390fd5b6105e761105d565b6000805490508210610644576040517f08c379a000000000000000000000000000000000000000000000000000000000815260040180806020018281038252602d8152602001806115b1602d913960400191505060405180910390fd5b8073ffffffffffffffffffffffffffffffffffffffff166000838154811061066857fe5b9060005260206000200160009054906101000a900473ffffffffffffffffffffffffffffffffffffffff1673ffffffffffffffffffffffffffffffffffffffff163373ffffffffffffffffffffffffffffffffffffffff167ff48dd64d794d3623209edddaa975cfeae5b0ef403fbce64d7b377ceb50396c7460405160405180910390a480600083815481106106fa57fe5b9060005260206000200160006101000a81548173ffffffffffffffffffffffffffffffffffffffff021916908373ffffffffffffffffffffffffffffffffffffffff1602179055505050565b6107df3360008054806020026020016040519081016040528092919081815260200182805480156107cc57602002820191906000526020600020905b8160009054906101000a900473ffffffffffffffffffffffffffffffffffffffff1673ffffffffffffffffffffffffffffffffffffffff1681526020019060010190808311610782575b5050505050610fdf90919063ffffffff16565b610834576040517f08c379a000000000000000000000000000000000000000000000000000000000815260040180806020018281038252603481526020018061154f6034913960400191505060405180910390fd5b806000600260008381526020019081526020016000208054905081106108a5576040517f08c379a000000000000000000000000000000000000000000000000000000000815260040180806020018281038252602f8152602001806115de602f913960400191505060405180910390fd5b823373ffffffffffffffffffffffffffffffffffffffff167ffb7251ba5d43bdf2193d4616dad278fd04102e9fd2291bb9f95510a03f10f8ce60006040518082815260200191505060405180910390a3610937336002600086815260200190815260200160002060008154811061091857fe5b90600052602060002090600202016001016111cb90919063ffffffff16565b50505050565b60008061094a3384610ae0565b90506000600260008381526020019081526020016000208054905090506002600083815260200190815260200160002060405180604001604052803373ffffffffffffffffffffffffffffffffffffffff168152602001600067ffffffffffffffff811180156109b957600080fd5b506040519080825280602002602001820160405280156109e85781602001602082028036833780820191505090505b50815250908060018154018082558091505060019003906000526020600020906002020160009091909190915060008201518160000160006101000a81548173ffffffffffffffffffffffffffffffffffffffff021916908373ffffffffffffffffffffffffffffffffffffffff1602179055506020820151816001019080519060200190610a78929190611459565b505050818473ffffffffffffffffffffffffffffffffffffffff163373ffffffffffffffffffffffffffffffffffffffff167f313df56710bfec73d53fcb8e8d48ff821d5b2e9a113aad1e9bfc7997ef5a0d7f60405160405180910390a48092505050919050565b60008282604051602001808373ffffffffffffffffffffffffffffffffffffffff1660601b81526014018273ffffffffffffffffffffffffffffffffffffffff1660601b81526014019250505060405160208183030381529060405280519060200120905092915050565b60015481565b60008181548110610b5e57fe5b906000526020600020016000915054906101000a900473ffffffffffffffffffffffffffffffffffffffff1681565b6000610bbb7f8dddb57468cf5338ee155397ad1400a7a564308824f517d20a8a7c516523bb4760001c611354565b905090565b610c59336000805480602002602001604051908101604052809291908181526020018280548015610c4657602002820191906000526020600020905b8160009054906101000a900473ffffffffffffffffffffffffffffffffffffffff1673ffffffffffffffffffffffffffffffffffffffff1681526020019060010190808311610bfc575b5050505050610fdf90919063ffffffff16565b610cae576040517f08c379a000000000000000000000000000000000000000000000000000000000815260040180806020018281038252603481526020018061154f6034913960400191505060405180910390fd5b80600060026000838152602001908152602001600020805490508110610d1f576040517f08c379a000000000000000000000000000000000000000000000000000000000815260040180806020018281038252602f8152602001806115de602f913960400191505060405180910390fd5b823373ffffffffffffffffffffffffffffffffffffffff167f2d579b8389bf07e7ce434f3bd88b036a33d28787d19af73a5aa2003a5dcb7d3660006040518082815260200191505060405180910390a3610db13360026000868152602001908152602001600020600081548110610d9257fe5b906000526020600020906002020160010161135f90919063ffffffff16565b505050565b600060026000838152602001908152602001600020805490509050919050565b60026020528160005260406000208181548110610def57fe5b9060005260206000209060020201600091509150508060000160009054906101000a900473ffffffffffffffffffffffffffffffffffffffff16905081565b60006060838360026000838152602001908152602001600020805490508110610ea2576040517f08c379a000000000000000000000000000000000000000000000000000000000815260040180806020018281038252602f8152602001806115de602f913960400191505060405180910390fd5b610eaa6114e3565b600260008881526020019081526020016000208681548110610ec857fe5b90600052602060002090600202016040518060400160405290816000820160009054906101000a900473ffffffffffffffffffffffffffffffffffffffff1673ffffffffffffffffffffffffffffffffffffffff1673ffffffffffffffffffffffffffffffffffffffff16815260200160018201805480602002602001604051908101604052809291908181526020018280548015610fbc57602002820191906000526020600020905b8160009054906101000a900473ffffffffffffffffffffffffffffffffffffffff1673ffffffffffffffffffffffffffffffffffffffff1681526020019060010190808311610f72575b505050505081525050905080600001518160200151945094505050509250929050565b6000808351905060005b81811015611050578373ffffffffffffffffffffffffffffffffffffffff1685828151811061101457fe5b602002602001015173ffffffffffffffffffffffffffffffffffffffff16141561104357600192505050611057565b8080600101915050610fe9565b5060009150505b92915050565b600034905060003330604051602001808373ffffffffffffffffffffffffffffffffffffffff1660601b81526014018273ffffffffffffffffffffffffffffffffffffffff1660601b81526014019250505060405160208183030381529060405280519060200120905060006110d1610b8d565b905060008173ffffffffffffffffffffffffffffffffffffffff16631ebaa1668460006040518363ffffffff1660e01b8152600401808381526020018281526020019250505060206040518083038186803b15801561112f57600080fd5b505afa158015611143573d6000803e3d6000fd5b505050506040513d602081101561115957600080fd5b81019080805190602001909291905050509050600081116111c5576040517f08c379a000000000000000000000000000000000000000000000000000000000815260040180806020018281038252602e815260200180611583602e913960400191505060405180910390fd5b50505050565b6000808380549050905060005b8181101561125c578373ffffffffffffffffffffffffffffffffffffffff1685828154811061120357fe5b9060005260206000200160009054906101000a900473ffffffffffffffffffffffffffffffffffffffff1673ffffffffffffffffffffffffffffffffffffffff16141561124f5761125c565b80806001019150506111d8565b81811015611347576001820381146112fd5784600183038154811061127d57fe5b9060005260206000200160009054906101000a900473ffffffffffffffffffffffffffffffffffffffff168582815481106112b457fe5b9060005260206000200160006101000a81548173ffffffffffffffffffffffffffffffffffffffff021916908373ffffffffffffffffffffffffffffffffffffffff1602179055505b8480548061130757fe5b6001900381819060005260206000200160006101000a81549073ffffffffffffffffffffffffffffffffffffffff0219169055905560019250505061134e565b6000925050505b92915050565b600081549050919050565b6113ee828054806020026020016040519081016040528092919081815260200182805480156113e357602002820191906000526020600020905b8160009054906101000a900473ffffffffffffffffffffffffffffffffffffffff1673ffffffffffffffffffffffffffffffffffffffff1681526020019060010190808311611399575b505050505082610fdf565b6114555781819080600181540180825580915050600190039060005260206000200160009091909190916101000a81548173ffffffffffffffffffffffffffffffffffffffff021916908373ffffffffffffffffffffffffffffffffffffffff1602179055505b5050565b8280548282559060005260206000209081019282156114d2579160200282015b828111156114d15782518260006101000a81548173ffffffffffffffffffffffffffffffffffffffff021916908373ffffffffffffffffffffffffffffffffffffffff16021790555091602001919060010190611479565b5b5090506114df9190611513565b5090565b6040518060400160405280600073ffffffffffffffffffffffffffffffffffffffff168152602001606081525090565b5b8082111561154a57600081816101000a81549073ffffffffffffffffffffffffffffffffffffffff021916905550600101611514565b509056fe4d756c7469706c65205369676e6174757265203a2063616c6c6572206973206e6f7420696e20746865206f776e65724c697374216d756c74695369676e6174757265436c69656e74203a2054686973207478206973206e6f7420617072726f7665644d756c7469706c65205369676e6174757265203a204f776e657220696e646578206973206f766572666c6f77214d756c7469706c65205369676e6174757265203a204d65737361676520696e646578206973206f766572666c6f7721a2646970667358221220f1c9346d044bae11d189e70fb9194eb81cf4b018b67622854124fafe7edf324564736f6c634300060c00334d756c7469706c65205369676e6174757265203a205369676e6174757265207468726573686f6c642069732067726561746572207468616e206f776e65727327206c656e677468216d756c74695369676e6174757265436c69656e74203a204d756c7469706c65207369676e617475726520636f6e74726163742061646472657373206973207a65726f21",
  "linkReferences": {},
  "deployedLinkReferences": {}
}