{
  "_format": "hh-sol-artifact-1",
  "contractName": "multiSignatureClient",
  "sourceName": "contracts/multiSignature/multiSignatureClient.sol",
  "abi": [
    {
      "inputs": [
        {
          "internalType": "address",
          "name": "multiSignature",
          "type": "address"
        }
      ],
      "stateMutability": "nonpayable",
      "type": "constructor"
    },
    {
      "inputs": [],
      "name": "getMultiSignatureAddress",
      "outputs": [
        {
          "internalType": "address",
          "name": "",
          "type": "address"
        }
      ],
      "stateMutability": "view",
      "type": "function"
    }
  ],
  "bytecode": "0x608060405234801561001057600080fd5b506040516102423803806102428339818101604052602081101561003357600080fd5b8101908080519060200190929190505050600073ffffffffffffffffffffffffffffffffffffffff168173ffffffffffffffffffffffffffffffffffffffff1614156100ca576040517f08c379a00000000000000000000000000000000000000000000000000000000081526004018080602001828103825260438152602001806101ff6043913960600191505060405180910390fd5b6101137f8dddb57468cf5338ee155397ad1400a7a564308824f517d20a8a7c516523bb4760001c8273ffffffffffffffffffffffffffffffffffffffff1661011960201b60201c565b50610120565b8082555050565b60d18061012e6000396000f3fe6080604052348015600f57600080fd5b506004361060285760003560e01c8063638c7e1714602d575b600080fd5b6033605f565b604051808273ffffffffffffffffffffffffffffffffffffffff16815260200191505060405180910390f35b6000608b7f8dddb57468cf5338ee155397ad1400a7a564308824f517d20a8a7c516523bb4760001c6090565b905090565b60008154905091905056fea264697066735822122074c101a1e96586d82e5de64e60bc937ca06d1e2b2f86177950a3b8d4cc46cc3064736f6c634300060c00336d756c74695369676e6174757265436c69656e74203a204d756c7469706c65207369676e617475726520636f6e74726163742061646472657373206973207a65726f21",
  "linkReferences": {},
  "deployedLinkReferences": {}
}